{
  "contractName": "Betting",
  "abi": [
    {
      "inputs": [],
      "stateMutability": "nonpayable",
      "type": "constructor"
    },
    {
      "anonymous": false,
      "inputs": [
        {
          "indexed": true,
          "internalType": "address",
          "name": "owner",
          "type": "address"
        },
        {
          "indexed": true,
          "internalType": "address",
          "name": "approved",
          "type": "address"
        },
        {
          "indexed": true,
          "internalType": "uint256",
          "name": "tokenId",
          "type": "uint256"
        }
      ],
      "name": "Approval",
      "type": "event"
    },
    {
      "anonymous": false,
      "inputs": [
        {
          "indexed": true,
          "internalType": "address",
          "name": "owner",
          "type": "address"
        },
        {
          "indexed": true,
          "internalType": "address",
          "name": "operator",
          "type": "address"
        },
        {
          "indexed": false,
          "internalType": "bool",
          "name": "approved",
          "type": "bool"
        }
      ],
      "name": "ApprovalForAll",
      "type": "event"
    },
    {
      "anonymous": false,
      "inputs": [
        {
          "indexed": false,
          "internalType": "uint256",
          "name": "",
          "type": "uint256"
        },
        {
          "indexed": false,
          "internalType": "address",
          "name": "",
          "type": "address"
        },
        {
          "indexed": false,
          "internalType": "bytes32",
          "name": "",
          "type": "bytes32"
        }
      ],
      "name": "NewBet",
      "type": "event"
    },
    {
      "anonymous": false,
      "inputs": [
        {
          "indexed": false,
          "internalType": "address",
          "name": "",
          "type": "address"
        },
        {
          "indexed": false,
          "internalType": "bytes32",
          "name": "",
          "type": "bytes32"
        }
      ],
      "name": "NewBook",
      "type": "event"
    },
    {
      "anonymous": false,
      "inputs": [
        {
          "indexed": true,
          "internalType": "address",
          "name": "from",
          "type": "address"
        },
        {
          "indexed": true,
          "internalType": "address",
          "name": "to",
          "type": "address"
        },
        {
          "indexed": true,
          "internalType": "uint256",
          "name": "tokenId",
          "type": "uint256"
        }
      ],
      "name": "Transfer",
      "type": "event"
    },
    {
      "inputs": [
        {
          "internalType": "address",
          "name": "to",
          "type": "address"
        },
        {
          "internalType": "uint256",
          "name": "tokenId",
          "type": "uint256"
        }
      ],
      "name": "approve",
      "outputs": [],
      "stateMutability": "nonpayable",
      "type": "function"
    },
    {
      "inputs": [
        {
          "internalType": "address",
          "name": "owner",
          "type": "address"
        }
      ],
      "name": "balanceOf",
      "outputs": [
        {
          "internalType": "uint256",
          "name": "",
          "type": "uint256"
        }
      ],
      "stateMutability": "view",
      "type": "function"
    },
    {
      "inputs": [
        {
          "internalType": "uint256",
          "name": "",
          "type": "uint256"
        }
      ],
      "name": "betTicketFromNFT",
      "outputs": [
        {
          "internalType": "bytes32",
          "name": "book",
          "type": "bytes32"
        },
        {
          "internalType": "uint256",
          "name": "option",
          "type": "uint256"
        },
        {
          "internalType": "uint256",
          "name": "payout",
          "type": "uint256"
        }
      ],
      "stateMutability": "view",
      "type": "function"
    },
    {
      "inputs": [
        {
          "internalType": "bytes32",
          "name": "",
          "type": "bytes32"
        }
      ],
      "name": "books",
      "outputs": [
        {
          "internalType": "address",
          "name": "bookie",
          "type": "address"
        },
        {
          "internalType": "uint256",
          "name": "reductionRate",
          "type": "uint256"
        },
        {
          "internalType": "uint256",
          "name": "optionsCount",
          "type": "uint256"
        },
        {
          "internalType": "uint256",
          "name": "totalBets",
          "type": "uint256"
        },
        {
          "internalType": "bool",
          "name": "complete",
          "type": "bool"
        },
        {
          "internalType": "uint256",
          "name": "winner",
          "type": "uint256"
        }
      ],
      "stateMutability": "view",
      "type": "function"
    },
    {
      "inputs": [
        {
          "internalType": "uint256",
          "name": "tokenId",
          "type": "uint256"
        }
      ],
      "name": "getApproved",
      "outputs": [
        {
          "internalType": "address",
          "name": "",
          "type": "address"
        }
      ],
      "stateMutability": "view",
      "type": "function"
    },
    {
      "inputs": [
        {
          "internalType": "address",
          "name": "owner",
          "type": "address"
        },
        {
          "internalType": "address",
          "name": "operator",
          "type": "address"
        }
      ],
      "name": "isApprovedForAll",
      "outputs": [
        {
          "internalType": "bool",
          "name": "",
          "type": "bool"
        }
      ],
      "stateMutability": "view",
      "type": "function"
    },
    {
      "inputs": [],
      "name": "name",
      "outputs": [
        {
          "internalType": "string",
          "name": "",
          "type": "string"
        }
      ],
      "stateMutability": "view",
      "type": "function"
    },
    {
      "inputs": [],
      "name": "oneHundredPercent",
      "outputs": [
        {
          "internalType": "uint256",
          "name": "",
          "type": "uint256"
        }
      ],
      "stateMutability": "view",
      "type": "function"
    },
    {
      "inputs": [
        {
          "internalType": "uint256",
          "name": "tokenId",
          "type": "uint256"
        }
      ],
      "name": "ownerOf",
      "outputs": [
        {
          "internalType": "address",
          "name": "",
          "type": "address"
        }
      ],
      "stateMutability": "view",
      "type": "function"
    },
    {
      "inputs": [
        {
          "internalType": "address",
          "name": "from",
          "type": "address"
        },
        {
          "internalType": "address",
          "name": "to",
          "type": "address"
        },
        {
          "internalType": "uint256",
          "name": "tokenId",
          "type": "uint256"
        }
      ],
      "name": "safeTransferFrom",
      "outputs": [],
      "stateMutability": "nonpayable",
      "type": "function"
    },
    {
      "inputs": [
        {
          "internalType": "address",
          "name": "from",
          "type": "address"
        },
        {
          "internalType": "address",
          "name": "to",
          "type": "address"
        },
        {
          "internalType": "uint256",
          "name": "tokenId",
          "type": "uint256"
        },
        {
          "internalType": "bytes",
          "name": "_data",
          "type": "bytes"
        }
      ],
      "name": "safeTransferFrom",
      "outputs": [],
      "stateMutability": "nonpayable",
      "type": "function"
    },
    {
      "inputs": [
        {
          "internalType": "address",
          "name": "operator",
          "type": "address"
        },
        {
          "internalType": "bool",
          "name": "approved",
          "type": "bool"
        }
      ],
      "name": "setApprovalForAll",
      "outputs": [],
      "stateMutability": "nonpayable",
      "type": "function"
    },
    {
      "inputs": [
        {
          "internalType": "bytes4",
          "name": "interfaceId",
          "type": "bytes4"
        }
      ],
      "name": "supportsInterface",
      "outputs": [
        {
          "internalType": "bool",
          "name": "",
          "type": "bool"
        }
      ],
      "stateMutability": "view",
      "type": "function"
    },
    {
      "inputs": [],
      "name": "symbol",
      "outputs": [
        {
          "internalType": "string",
          "name": "",
          "type": "string"
        }
      ],
      "stateMutability": "view",
      "type": "function"
    },
    {
      "inputs": [
        {
          "internalType": "uint256",
          "name": "tokenId",
          "type": "uint256"
        }
      ],
      "name": "tokenURI",
      "outputs": [
        {
          "internalType": "string",
          "name": "",
          "type": "string"
        }
      ],
      "stateMutability": "view",
      "type": "function"
    },
    {
      "inputs": [
        {
          "internalType": "address",
          "name": "from",
          "type": "address"
        },
        {
          "internalType": "address",
          "name": "to",
          "type": "address"
        },
        {
          "internalType": "uint256",
          "name": "tokenId",
          "type": "uint256"
        }
      ],
      "name": "transferFrom",
      "outputs": [],
      "stateMutability": "nonpayable",
      "type": "function"
    },
    {
      "inputs": [
        {
          "internalType": "bytes32",
          "name": "_book",
          "type": "bytes32"
        },
        {
          "internalType": "uint256",
          "name": "_option",
          "type": "uint256"
        }
      ],
      "name": "placeBet",
      "outputs": [],
      "stateMutability": "payable",
      "type": "function"
    },
    {
      "inputs": [
        {
          "internalType": "uint256",
          "name": "ticket",
          "type": "uint256"
        }
      ],
      "name": "settleBet",
      "outputs": [],
      "stateMutability": "nonpayable",
      "type": "function"
    },
    {
      "inputs": [
        {
          "internalType": "bytes32",
          "name": "_book",
          "type": "bytes32"
        }
      ],
      "name": "fundBet",
      "outputs": [],
      "stateMutability": "payable",
      "type": "function"
    },
    {
      "inputs": [
        {
          "internalType": "bytes32",
          "name": "_book",
          "type": "bytes32"
        },
        {
          "internalType": "uint256",
          "name": "_option",
          "type": "uint256"
        },
        {
          "internalType": "uint256",
          "name": "_amount",
          "type": "uint256"
        }
      ],
      "name": "getOdds",
      "outputs": [
        {
          "internalType": "uint256",
          "name": "",
          "type": "uint256"
        }
      ],
      "stateMutability": "view",
      "type": "function"
    },
    {
      "inputs": [
        {
          "internalType": "bytes32",
          "name": "_book",
          "type": "bytes32"
        },
        {
          "internalType": "uint256",
          "name": "_winner",
          "type": "uint256"
        }
      ],
      "name": "callBet",
      "outputs": [],
      "stateMutability": "nonpayable",
      "type": "function"
    }
  ],
  "bytecode": "0x608060405260006006553480156200001657600080fd5b506040518060400160405280600e81526020017f42657474696e67205469636b65740000000000000000000000000000000000008152506040518060400160405280600381526020017f424554000000000000000000000000000000000000000000000000000000000081525081600090805190602001906200009b929190620000bd565b508060019080519060200190620000b4929190620000bd565b505050620001d2565b828054620000cb906200016d565b90600052602060002090601f016020900481019282620000ef57600085556200013b565b82601f106200010a57805160ff19168380011785556200013b565b828001600101855582156200013b579182015b828111156200013a5782518255916020019190600101906200011d565b5b5090506200014a91906200014e565b5090565b5b80821115620001695760008160009055506001016200014f565b5090565b600060028204905060018216806200018657607f821691505b602082108114156200019d576200019c620001a3565b5b50919050565b7f4e487b7100000000000000000000000000000000000000000000000000000000600052602260045260246000fd5b6139a980620001e26000396000f3fe60806040526004361061012a5760003560e01c80636352211e116100ab57806395d89b411161006f57806395d89b4114610420578063a22cb4651461044b578063b88d4fde14610474578063c87b56dd1461049d578063e985e9c5146104da578063f3118d8e146105175761012a565b80636352211e1461030157806370a082311461033e578063726e03201461037b5780637bab25d1146103a457806381007391146103e35761012a565b8063154048ab116100f2578063154048ab1461023f57806316fd381a1461025b57806323b872dd1461028457806334913f28146102ad57806342842e0e146102d85761012a565b806301ffc9a71461012f57806306fdde031461016c578063081812fc14610197578063095ea7b3146101d45780630c0dee70146101fd575b600080fd5b34801561013b57600080fd5b506101566004803603810190610151919061265a565b610533565b6040516101639190612ba2565b60405180910390f35b34801561017857600080fd5b50610181610615565b60405161018e9190612bf4565b60405180910390f35b3480156101a357600080fd5b506101be60048036038101906101b991906126ac565b6106a7565b6040516101cb9190612ada565b60405180910390f35b3480156101e057600080fd5b506101fb60048036038101906101f6919061256a565b61072c565b005b34801561020957600080fd5b50610224600480360381019061021f91906125a6565b610844565b60405161023696959493929190612b41565b60405180910390f35b610259600480360381019061025491906125a6565b6108ad565b005b34801561026757600080fd5b50610282600480360381019061027d91906126ac565b610a48565b005b34801561029057600080fd5b506102ab60048036038101906102a69190612464565b610bb9565b005b3480156102b957600080fd5b506102c2610c19565b6040516102cf9190612ed6565b60405180910390f35b3480156102e457600080fd5b506102ff60048036038101906102fa9190612464565b610c1f565b005b34801561030d57600080fd5b50610328600480360381019061032391906126ac565b610c3f565b6040516103359190612ada565b60405180910390f35b34801561034a57600080fd5b50610365600480360381019061036091906123ff565b610cf1565b6040516103729190612ed6565b60405180910390f35b34801561038757600080fd5b506103a2600480360381019061039d91906125cf565b610da9565b005b3480156103b057600080fd5b506103cb60048036038101906103c691906126ac565b610fef565b6040516103da93929190612bbd565b60405180910390f35b3480156103ef57600080fd5b5061040a6004803603810190610405919061260b565b611019565b6040516104179190612ed6565b60405180910390f35b34801561042c57600080fd5b50610435611170565b6040516104429190612bf4565b60405180910390f35b34801561045757600080fd5b50610472600480360381019061046d919061252e565b611202565b005b34801561048057600080fd5b5061049b600480360381019061049691906124b3565b611383565b005b3480156104a957600080fd5b506104c460048036038101906104bf91906126ac565b6113e5565b6040516104d19190612bf4565b60405180910390f35b3480156104e657600080fd5b5061050160048036038101906104fc9190612428565b61148c565b60405161050e9190612ba2565b60405180910390f35b610531600480360381019061052c91906125cf565b611520565b005b60007f80ac58cd000000000000000000000000000000000000000000000000000000007bffffffffffffffffffffffffffffffffffffffffffffffffffffffff1916827bffffffffffffffffffffffffffffffffffffffffffffffffffffffff191614806105fe57507f5b5e139f000000000000000000000000000000000000000000000000000000007bffffffffffffffffffffffffffffffffffffffffffffffffffffffff1916827bffffffffffffffffffffffffffffffffffffffffffffffffffffffff1916145b8061060e575061060d82611530565b5b9050919050565b60606000805461062490613196565b80601f016020809104026020016040519081016040528092919081815260200182805461065090613196565b801561069d5780601f106106725761010080835404028352916020019161069d565b820191906000526020600020905b81548152906001019060200180831161068057829003601f168201915b5050505050905090565b60006106b28261159a565b6106f1576040517f08c379a00000000000000000000000000000000000000000000000000000000081526004016106e890612db6565b60405180910390fd5b6004600083815260200190815260200160002060009054906101000a900473ffffffffffffffffffffffffffffffffffffffff169050919050565b600061073782610c3f565b90508073ffffffffffffffffffffffffffffffffffffffff168373ffffffffffffffffffffffffffffffffffffffff1614156107a8576040517f08c379a000000000000000000000000000000000000000000000000000000000815260040161079f90612e56565b60405180910390fd5b8073ffffffffffffffffffffffffffffffffffffffff166107c7611606565b73ffffffffffffffffffffffffffffffffffffffff1614806107f657506107f5816107f0611606565b61148c565b5b610835576040517f08c379a000000000000000000000000000000000000000000000000000000000815260040161082c90612d36565b60405180910390fd5b61083f838361160e565b505050565b60086020528060005260406000206000915090508060000160009054906101000a900473ffffffffffffffffffffffffffffffffffffffff16908060010154908060050154908060060154908060070160009054906101000a900460ff16908060080154905086565b6008600082815260200190815260200160002060000160009054906101000a900473ffffffffffffffffffffffffffffffffffffffff1673ffffffffffffffffffffffffffffffffffffffff163373ffffffffffffffffffffffffffffffffffffffff1614610951576040517f08c379a000000000000000000000000000000000000000000000000000000000815260040161094890612e36565b60405180910390fd5b6000806008600084815260200190815260200160002060050154346109769190613017565b9050600181116109bb576040517f08c379a00000000000000000000000000000000000000000000000000000000081526004016109b290612e96565b60405180910390fd5b60005b600160086000868152602001908152602001600020600501546109e191906130a2565b811015610a155781836109f49190612fc1565b9250610a02338583856116c7565b8080610a0d906131f9565b9150506109be565b50610a43338460086000878152602001908152602001600020600501548534610a3e91906130a2565b6116c7565b505050565b600860006007600084815260200190815260200160002060000154815260200190815260200160002060070160009054906101000a900460ff16610ac1576040517f08c379a0000000000000000000000000000000000000000000000000000000008152600401610ab890612c16565b60405180910390fd5b600760008281526020019081526020016000206001015460086000600760008581526020019081526020016000206000015481526020019081526020016000206008015414610b45576040517f08c379a0000000000000000000000000000000000000000000000000000000008152600401610b3c90612cf6565b60405180910390fd5b610b50333083610bb9565b610b5981611931565b3373ffffffffffffffffffffffffffffffffffffffff166108fc60076000848152602001908152602001600020600201549081150290604051600060405180830381858888f19350505050158015610bb5573d6000803e3d6000fd5b5050565b610bca610bc4611606565b82611a42565b610c09576040517f08c379a0000000000000000000000000000000000000000000000000000000008152600401610c0090612e76565b60405180910390fd5b610c14838383611b20565b505050565b61271081565b610c3a83838360405180602001604052806000815250611383565b505050565b6000806002600084815260200190815260200160002060009054906101000a900473ffffffffffffffffffffffffffffffffffffffff169050600073ffffffffffffffffffffffffffffffffffffffff168173ffffffffffffffffffffffffffffffffffffffff161415610ce8576040517f08c379a0000000000000000000000000000000000000000000000000000000008152600401610cdf90612d76565b60405180910390fd5b80915050919050565b60008073ffffffffffffffffffffffffffffffffffffffff168273ffffffffffffffffffffffffffffffffffffffff161415610d62576040517f08c379a0000000000000000000000000000000000000000000000000000000008152600401610d5990612d56565b60405180910390fd5b600360008373ffffffffffffffffffffffffffffffffffffffff1673ffffffffffffffffffffffffffffffffffffffff168152602001908152602001600020549050919050565b60086000838152602001908152602001600020600501548110610e01576040517f08c379a0000000000000000000000000000000000000000000000000000000008152600401610df890612c56565b60405180910390fd5b6008600083815260200190815260200160002060000160009054906101000a900473ffffffffffffffffffffffffffffffffffffffff1673ffffffffffffffffffffffffffffffffffffffff163373ffffffffffffffffffffffffffffffffffffffff1614610ea5576040517f08c379a0000000000000000000000000000000000000000000000000000000008152600401610e9c90612dd6565b60405180910390fd5b80600860008481526020019081526020016000206008018190555060016008600084815260200190815260200160002060070160006101000a81548160ff0219169083151502179055506000600860008481526020019081526020016000206003018281548110610f3f577f4e487b7100000000000000000000000000000000000000000000000000000000600052603260045260246000fd5b90600052602060002001546008600085815260200190815260200160002060060154610f6b91906130a2565b90506008600084815260200190815260200160002060000160009054906101000a900473ffffffffffffffffffffffffffffffffffffffff1673ffffffffffffffffffffffffffffffffffffffff166108fc829081150290604051600060405180830381858888f19350505050158015610fe9573d6000803e3d6000fd5b50505050565b60076020528060005260406000206000915090508060000154908060010154908060020154905083565b600082600860008681526020019081526020016000206005015411611073576040517f08c379a000000000000000000000000000000000000000000000000000000000815260040161106a90612cd6565b60405180910390fd5b60006008600086815260200190815260200160002090506000816006015414156110a05782915050611169565b612710808260020186815481106110e0577f4e487b7100000000000000000000000000000000000000000000000000000000600052603260045260246000fd5b9060005260206000200154856110f69190612fc1565b6127108685600601546111099190612fc1565b6127106111169190613048565b6111209190613017565b61112a9190613048565b836001015461271061113c91906130a2565b866111479190613048565b6111519190613048565b61115b9190613017565b6111659190613017565b9150505b9392505050565b60606001805461117f90613196565b80601f01602080910402602001604051908101604052809291908181526020018280546111ab90613196565b80156111f85780601f106111cd576101008083540402835291602001916111f8565b820191906000526020600020905b8154815290600101906020018083116111db57829003601f168201915b5050505050905090565b61120a611606565b73ffffffffffffffffffffffffffffffffffffffff168273ffffffffffffffffffffffffffffffffffffffff161415611278576040517f08c379a000000000000000000000000000000000000000000000000000000000815260040161126f90612cb6565b60405180910390fd5b8060056000611285611606565b73ffffffffffffffffffffffffffffffffffffffff1673ffffffffffffffffffffffffffffffffffffffff16815260200190815260200160002060008473ffffffffffffffffffffffffffffffffffffffff1673ffffffffffffffffffffffffffffffffffffffff16815260200190815260200160002060006101000a81548160ff0219169083151502179055508173ffffffffffffffffffffffffffffffffffffffff16611332611606565b73ffffffffffffffffffffffffffffffffffffffff167f17307eab39ab6107e8899845ad3d59bd9653f200f220920489ca2b5937696c31836040516113779190612ba2565b60405180910390a35050565b61139461138e611606565b83611a42565b6113d3576040517f08c379a00000000000000000000000000000000000000000000000000000000081526004016113ca90612e76565b60405180910390fd5b6113df84848484611d7c565b50505050565b60606113f08261159a565b61142f576040517f08c379a000000000000000000000000000000000000000000000000000000000815260040161142690612e16565b60405180910390fd5b6000611439611dd8565b905060008151116114595760405180602001604052806000815250611484565b8061146384611def565b604051602001611474929190612ab6565b6040516020818303038152906040525b915050919050565b6000600560008473ffffffffffffffffffffffffffffffffffffffff1673ffffffffffffffffffffffffffffffffffffffff16815260200190815260200160002060008373ffffffffffffffffffffffffffffffffffffffff1673ffffffffffffffffffffffffffffffffffffffff16815260200190815260200160002060009054906101000a900460ff16905092915050565b61152c338383346116c7565b5050565b60007f01ffc9a7000000000000000000000000000000000000000000000000000000007bffffffffffffffffffffffffffffffffffffffffffffffffffffffff1916827bffffffffffffffffffffffffffffffffffffffffffffffffffffffff1916149050919050565b60008073ffffffffffffffffffffffffffffffffffffffff166002600084815260200190815260200160002060009054906101000a900473ffffffffffffffffffffffffffffffffffffffff1673ffffffffffffffffffffffffffffffffffffffff1614159050919050565b600033905090565b816004600083815260200190815260200160002060006101000a81548173ffffffffffffffffffffffffffffffffffffffff021916908373ffffffffffffffffffffffffffffffffffffffff160217905550808273ffffffffffffffffffffffffffffffffffffffff1661168183610c3f565b73ffffffffffffffffffffffffffffffffffffffff167f8c5be1e5ebec7d5bd14f71427d1e84f3dd0314c0f7b2291e5b200ac8c7c3b92560405160405180910390a45050565b8160086000858152602001908152602001600020600501541161171f576040517f08c379a000000000000000000000000000000000000000000000000000000000815260040161171690612eb6565b60405180910390fd5b61172b84600654611f9c565b6000611738848484611019565b9050604051806060016040528085815260200184815260200182815250600760006006548152602001908152602001600020600082015181600001556020820151816001015560408201518160020155905050600860008581526020019081526020016000206004016006549080600181540180825580915050600190039060005260206000200160009091909190915055816008600086815260200190815260200160002060060160008282546117f09190612fc1565b9250508190555081600860008681526020019081526020016000206002018481548110611846577f4e487b7100000000000000000000000000000000000000000000000000000000600052603260045260246000fd5b90600052602060002001600082825461185f9190612fc1565b92505081905550806008600086815260200190815260200160002060030184815481106118b5577f4e487b7100000000000000000000000000000000000000000000000000000000600052603260045260246000fd5b9060005260206000200160008282546118ce9190612fc1565b925050819055507f8fc9c4f9d6b36166b3dc0bcc4428f588ac64079e040b0623594709ccaceeac04600654868660405161190a93929190612ef1565b60405180910390a160066000815480929190611925906131f9565b91905055505050505050565b600061193c82610c3f565b905061194a8160008461216a565b61195560008361160e565b6001600360008373ffffffffffffffffffffffffffffffffffffffff1673ffffffffffffffffffffffffffffffffffffffff16815260200190815260200160002060008282546119a591906130a2565b925050819055506002600083815260200190815260200160002060006101000a81549073ffffffffffffffffffffffffffffffffffffffff021916905581600073ffffffffffffffffffffffffffffffffffffffff168273ffffffffffffffffffffffffffffffffffffffff167fddf252ad1be2c89b69c2b068fc378daa952ba7f163c4a11628f55a4df523b3ef60405160405180910390a45050565b6000611a4d8261159a565b611a8c576040517f08c379a0000000000000000000000000000000000000000000000000000000008152600401611a8390612d16565b60405180910390fd5b6000611a9783610c3f565b90508073ffffffffffffffffffffffffffffffffffffffff168473ffffffffffffffffffffffffffffffffffffffff161480611b0657508373ffffffffffffffffffffffffffffffffffffffff16611aee846106a7565b73ffffffffffffffffffffffffffffffffffffffff16145b80611b175750611b16818561148c565b5b91505092915050565b8273ffffffffffffffffffffffffffffffffffffffff16611b4082610c3f565b73ffffffffffffffffffffffffffffffffffffffff1614611b96576040517f08c379a0000000000000000000000000000000000000000000000000000000008152600401611b8d90612df6565b60405180910390fd5b600073ffffffffffffffffffffffffffffffffffffffff168273ffffffffffffffffffffffffffffffffffffffff161415611c06576040517f08c379a0000000000000000000000000000000000000000000000000000000008152600401611bfd90612c96565b60405180910390fd5b611c1183838361216a565b611c1c60008261160e565b6001600360008573ffffffffffffffffffffffffffffffffffffffff1673ffffffffffffffffffffffffffffffffffffffff1681526020019081526020016000206000828254611c6c91906130a2565b925050819055506001600360008473ffffffffffffffffffffffffffffffffffffffff1673ffffffffffffffffffffffffffffffffffffffff1681526020019081526020016000206000828254611cc39190612fc1565b92505081905550816002600083815260200190815260200160002060006101000a81548173ffffffffffffffffffffffffffffffffffffffff021916908373ffffffffffffffffffffffffffffffffffffffff160217905550808273ffffffffffffffffffffffffffffffffffffffff168473ffffffffffffffffffffffffffffffffffffffff167fddf252ad1be2c89b69c2b068fc378daa952ba7f163c4a11628f55a4df523b3ef60405160405180910390a4505050565b611d87848484611b20565b611d938484848461216f565b611dd2576040517f08c379a0000000000000000000000000000000000000000000000000000000008152600401611dc990612c36565b60405180910390fd5b50505050565b606060405180602001604052806000815250905090565b60606000821415611e37576040518060400160405280600181526020017f30000000000000000000000000000000000000000000000000000000000000008152509050611f97565b600082905060005b60008214611e69578080611e52906131f9565b915050600a82611e629190613017565b9150611e3f565b60008167ffffffffffffffff811115611eab577f4e487b7100000000000000000000000000000000000000000000000000000000600052604160045260246000fd5b6040519080825280601f01601f191660200182016040528015611edd5781602001600182028036833780820191505090505b5090505b60008514611f9057600182611ef691906130a2565b9150600a85611f059190613242565b6030611f119190612fc1565b60f81b818381518110611f4d577f4e487b7100000000000000000000000000000000000000000000000000000000600052603260045260246000fd5b60200101907effffffffffffffffffffffffffffffffffffffffffffffffffffffffffffff1916908160001a905350600a85611f899190613017565b9450611ee1565b8093505050505b919050565b600073ffffffffffffffffffffffffffffffffffffffff168273ffffffffffffffffffffffffffffffffffffffff16141561200c576040517f08c379a000000000000000000000000000000000000000000000000000000000815260040161200390612d96565b60405180910390fd5b6120158161159a565b15612055576040517f08c379a000000000000000000000000000000000000000000000000000000000815260040161204c90612c76565b60405180910390fd5b6120616000838361216a565b6001600360008473ffffffffffffffffffffffffffffffffffffffff1673ffffffffffffffffffffffffffffffffffffffff16815260200190815260200160002060008282546120b19190612fc1565b92505081905550816002600083815260200190815260200160002060006101000a81548173ffffffffffffffffffffffffffffffffffffffff021916908373ffffffffffffffffffffffffffffffffffffffff160217905550808273ffffffffffffffffffffffffffffffffffffffff16600073ffffffffffffffffffffffffffffffffffffffff167fddf252ad1be2c89b69c2b068fc378daa952ba7f163c4a11628f55a4df523b3ef60405160405180910390a45050565b505050565b60006121908473ffffffffffffffffffffffffffffffffffffffff16612306565b156122f9578373ffffffffffffffffffffffffffffffffffffffff1663150b7a026121b9611606565b8786866040518563ffffffff1660e01b81526004016121db9493929190612af5565b602060405180830381600087803b1580156121f557600080fd5b505af192505050801561222657506040513d601f19601f820116820180604052508101906122239190612683565b60015b6122a9573d8060008114612256576040519150601f19603f3d011682016040523d82523d6000602084013e61225b565b606091505b506000815114156122a1576040517f08c379a000000000000000000000000000000000000000000000000000000000815260040161229890612c36565b60405180910390fd5b805181602001fd5b63150b7a0260e01b7bffffffffffffffffffffffffffffffffffffffffffffffffffffffff1916817bffffffffffffffffffffffffffffffffffffffffffffffffffffffff1916149150506122fe565b600190505b949350505050565b600080823b905060008111915050919050565b600061232c61232784612f4d565b612f28565b90508281526020810184848401111561234457600080fd5b61234f848285613154565b509392505050565b60008135905061236681613900565b92915050565b60008135905061237b81613917565b92915050565b6000813590506123908161392e565b92915050565b6000813590506123a581613945565b92915050565b6000815190506123ba81613945565b92915050565b600082601f8301126123d157600080fd5b81356123e1848260208601612319565b91505092915050565b6000813590506123f98161395c565b92915050565b60006020828403121561241157600080fd5b600061241f84828501612357565b91505092915050565b6000806040838503121561243b57600080fd5b600061244985828601612357565b925050602061245a85828601612357565b9150509250929050565b60008060006060848603121561247957600080fd5b600061248786828701612357565b935050602061249886828701612357565b92505060406124a9868287016123ea565b9150509250925092565b600080600080608085870312156124c957600080fd5b60006124d787828801612357565b94505060206124e887828801612357565b93505060406124f9878288016123ea565b925050606085013567ffffffffffffffff81111561251657600080fd5b612522878288016123c0565b91505092959194509250565b6000806040838503121561254157600080fd5b600061254f85828601612357565b92505060206125608582860161236c565b9150509250929050565b6000806040838503121561257d57600080fd5b600061258b85828601612357565b925050602061259c858286016123ea565b9150509250929050565b6000602082840312156125b857600080fd5b60006125c684828501612381565b91505092915050565b600080604083850312156125e257600080fd5b60006125f085828601612381565b9250506020612601858286016123ea565b9150509250929050565b60008060006060848603121561262057600080fd5b600061262e86828701612381565b935050602061263f868287016123ea565b9250506040612650868287016123ea565b9150509250925092565b60006020828403121561266c57600080fd5b600061267a84828501612396565b91505092915050565b60006020828403121561269557600080fd5b60006126a3848285016123ab565b91505092915050565b6000602082840312156126be57600080fd5b60006126cc848285016123ea565b91505092915050565b6126de816130d6565b82525050565b6126ed816130e8565b82525050565b6126fc816130f4565b82525050565b600061270d82612f7e565b6127178185612f94565b9350612727818560208601613163565b6127308161332f565b840191505092915050565b600061274682612f89565b6127508185612fa5565b9350612760818560208601613163565b6127698161332f565b840191505092915050565b600061277f82612f89565b6127898185612fb6565b9350612799818560208601613163565b80840191505092915050565b60006127b2601483612fa5565b91506127bd82613340565b602082019050919050565b60006127d5603283612fa5565b91506127e082613369565b604082019050919050565b60006127f8601d83612fa5565b9150612803826133b8565b602082019050919050565b600061281b601c83612fa5565b9150612826826133e1565b602082019050919050565b600061283e602483612fa5565b91506128498261340a565b604082019050919050565b6000612861601983612fa5565b915061286c82613459565b602082019050919050565b6000612884602583612fa5565b915061288f82613482565b604082019050919050565b60006128a7601b83612fa5565b91506128b2826134d1565b602082019050919050565b60006128ca602c83612fa5565b91506128d5826134fa565b604082019050919050565b60006128ed603883612fa5565b91506128f882613549565b604082019050919050565b6000612910602a83612fa5565b915061291b82613598565b604082019050919050565b6000612933602983612fa5565b915061293e826135e7565b604082019050919050565b6000612956602083612fa5565b915061296182613636565b602082019050919050565b6000612979602c83612fa5565b91506129848261365f565b604082019050919050565b600061299c602283612fa5565b91506129a7826136ae565b604082019050919050565b60006129bf602983612fa5565b91506129ca826136fd565b604082019050919050565b60006129e2602f83612fa5565b91506129ed8261374c565b604082019050919050565b6000612a05602d83612fa5565b9150612a108261379b565b604082019050919050565b6000612a28602183612fa5565b9150612a33826137ea565b604082019050919050565b6000612a4b603183612fa5565b9150612a5682613839565b604082019050919050565b6000612a6e602883612fa5565b9150612a7982613888565b604082019050919050565b6000612a91601a83612fa5565b9150612a9c826138d7565b602082019050919050565b612ab08161314a565b82525050565b6000612ac28285612774565b9150612ace8284612774565b91508190509392505050565b6000602082019050612aef60008301846126d5565b92915050565b6000608082019050612b0a60008301876126d5565b612b1760208301866126d5565b612b246040830185612aa7565b8181036060830152612b368184612702565b905095945050505050565b600060c082019050612b5660008301896126d5565b612b636020830188612aa7565b612b706040830187612aa7565b612b7d6060830186612aa7565b612b8a60808301856126e4565b612b9760a0830184612aa7565b979650505050505050565b6000602082019050612bb760008301846126e4565b92915050565b6000606082019050612bd260008301866126f3565b612bdf6020830185612aa7565b612bec6040830184612aa7565b949350505050565b60006020820190508181036000830152612c0e818461273b565b905092915050565b60006020820190508181036000830152612c2f816127a5565b9050919050565b60006020820190508181036000830152612c4f816127c8565b9050919050565b60006020820190508181036000830152612c6f816127eb565b9050919050565b60006020820190508181036000830152612c8f8161280e565b9050919050565b60006020820190508181036000830152612caf81612831565b9050919050565b60006020820190508181036000830152612ccf81612854565b9050919050565b60006020820190508181036000830152612cef81612877565b9050919050565b60006020820190508181036000830152612d0f8161289a565b9050919050565b60006020820190508181036000830152612d2f816128bd565b9050919050565b60006020820190508181036000830152612d4f816128e0565b9050919050565b60006020820190508181036000830152612d6f81612903565b9050919050565b60006020820190508181036000830152612d8f81612926565b9050919050565b60006020820190508181036000830152612daf81612949565b9050919050565b60006020820190508181036000830152612dcf8161296c565b9050919050565b60006020820190508181036000830152612def8161298f565b9050919050565b60006020820190508181036000830152612e0f816129b2565b9050919050565b60006020820190508181036000830152612e2f816129d5565b9050919050565b60006020820190508181036000830152612e4f816129f8565b9050919050565b60006020820190508181036000830152612e6f81612a1b565b9050919050565b60006020820190508181036000830152612e8f81612a3e565b9050919050565b60006020820190508181036000830152612eaf81612a61565b9050919050565b60006020820190508181036000830152612ecf81612a84565b9050919050565b6000602082019050612eeb6000830184612aa7565b92915050565b6000606082019050612f066000830186612aa7565b612f1360208301856126d5565b612f2060408301846126f3565b949350505050565b6000612f32612f43565b9050612f3e82826131c8565b919050565b6000604051905090565b600067ffffffffffffffff821115612f6857612f67613300565b5b612f718261332f565b9050602081019050919050565b600081519050919050565b600081519050919050565b600082825260208201905092915050565b600082825260208201905092915050565b600081905092915050565b6000612fcc8261314a565b9150612fd78361314a565b9250827fffffffffffffffffffffffffffffffffffffffffffffffffffffffffffffffff0382111561300c5761300b613273565b5b828201905092915050565b60006130228261314a565b915061302d8361314a565b92508261303d5761303c6132a2565b5b828204905092915050565b60006130538261314a565b915061305e8361314a565b9250817fffffffffffffffffffffffffffffffffffffffffffffffffffffffffffffffff048311821515161561309757613096613273565b5b828202905092915050565b60006130ad8261314a565b91506130b88361314a565b9250828210156130cb576130ca613273565b5b828203905092915050565b60006130e18261312a565b9050919050565b60008115159050919050565b6000819050919050565b60007fffffffff0000000000000000000000000000000000000000000000000000000082169050919050565b600073ffffffffffffffffffffffffffffffffffffffff82169050919050565b6000819050919050565b82818337600083830152505050565b60005b83811015613181578082015181840152602081019050613166565b83811115613190576000848401525b50505050565b600060028204905060018216806131ae57607f821691505b602082108114156131c2576131c16132d1565b5b50919050565b6131d18261332f565b810181811067ffffffffffffffff821117156131f0576131ef613300565b5b80604052505050565b60006132048261314a565b91507fffffffffffffffffffffffffffffffffffffffffffffffffffffffffffffffff82141561323757613236613273565b5b600182019050919050565b600061324d8261314a565b91506132588361314a565b925082613268576132676132a2565b5b828206905092915050565b7f4e487b7100000000000000000000000000000000000000000000000000000000600052601160045260246000fd5b7f4e487b7100000000000000000000000000000000000000000000000000000000600052601260045260246000fd5b7f4e487b7100000000000000000000000000000000000000000000000000000000600052602260045260246000fd5b7f4e487b7100000000000000000000000000000000000000000000000000000000600052604160045260246000fd5b6000601f19601f8301169050919050565b7f426574206d75737420626520636f6d706c657465000000000000000000000000600082015250565b7f4552433732313a207472616e7366657220746f206e6f6e20455243373231526560008201527f63656976657220696d706c656d656e7465720000000000000000000000000000602082015250565b7f57696e6e6572206d7573742062652077697468696e206f7074696f6e73000000600082015250565b7f4552433732313a20746f6b656e20616c7265616479206d696e74656400000000600082015250565b7f4552433732313a207472616e7366657220746f20746865207a65726f2061646460008201527f7265737300000000000000000000000000000000000000000000000000000000602082015250565b7f4552433732313a20617070726f766520746f2063616c6c657200000000000000600082015250565b7f6f7074696f6e206d7573742062652077697468696e206f7074696f6e7320696e60008201527f20626f6f6b000000000000000000000000000000000000000000000000000000602082015250565b7f4d757374206861766520626574206f6e207468652077696e6e65720000000000600082015250565b7f4552433732313a206f70657261746f7220717565727920666f72206e6f6e657860008201527f697374656e7420746f6b656e0000000000000000000000000000000000000000602082015250565b7f4552433732313a20617070726f76652063616c6c6572206973206e6f74206f7760008201527f6e6572206e6f7220617070726f76656420666f7220616c6c0000000000000000602082015250565b7f4552433732313a2062616c616e636520717565727920666f7220746865207a6560008201527f726f206164647265737300000000000000000000000000000000000000000000602082015250565b7f4552433732313a206f776e657220717565727920666f72206e6f6e657869737460008201527f656e7420746f6b656e0000000000000000000000000000000000000000000000602082015250565b7f4552433732313a206d696e7420746f20746865207a65726f2061646472657373600082015250565b7f4552433732313a20617070726f76656420717565727920666f72206e6f6e657860008201527f697374656e7420746f6b656e0000000000000000000000000000000000000000602082015250565b7f4f6e6c792074686520626f6f6b69652063616e20736574746c6520746865206260008201527f6574000000000000000000000000000000000000000000000000000000000000602082015250565b7f4552433732313a207472616e73666572206f6620746f6b656e2074686174206960008201527f73206e6f74206f776e0000000000000000000000000000000000000000000000602082015250565b7f4552433732314d657461646174613a2055524920717565727920666f72206e6f60008201527f6e6578697374656e7420746f6b656e0000000000000000000000000000000000602082015250565b7f4f6e6c792074686520626f6f6b69652063616e2070726f76696465207468652060008201527f626f6f6b732066756e64696e6700000000000000000000000000000000000000602082015250565b7f4552433732313a20617070726f76616c20746f2063757272656e74206f776e6560008201527f7200000000000000000000000000000000000000000000000000000000000000602082015250565b7f4552433732313a207472616e736665722063616c6c6572206973206e6f74206f60008201527f776e6572206e6f7220617070726f766564000000000000000000000000000000602082015250565b7f4d7573742073656e6420656e6f7567682077656920746f2066756e642065616360008201527f68206f7074696f6e000000000000000000000000000000000000000000000000602082015250565b7f626574206d7573742062652077697468696e206f7074696f6e73000000000000600082015250565b613909816130d6565b811461391457600080fd5b50565b613920816130e8565b811461392b57600080fd5b50565b613937816130f4565b811461394257600080fd5b50565b61394e816130fe565b811461395957600080fd5b50565b6139658161314a565b811461397057600080fd5b5056fea264697066735822122015cae059d42af63e81ca44b4932c82885199676e5eb539d02701497849f83e2964736f6c63430008040033",
  "immutableReferences": {},
  "source": "// SPDX-License-Identifier: None\npragma solidity ^0.8.0;\n\nimport \"@openzeppelin/contracts/token/ERC721/ERC721.sol\";\n\n/**\n* @title Betting\n* @author Carson Case: carsonpcase@gmail.com\n* @notice A contract for betting complete with a bookies reduction rate.\n* The contract can issue \"books\" of bets which their bookies profit off of. And users can bet on.\n* The ID of a book is emited as an event and a bet ticket is issued as an NFT with incremental interger IDs\n */\ncontract Betting is ERC721{\n    uint public constant oneHundredPercent = 10000;\n    uint latestId = 0;\n    \n    struct betTicket{\n        bytes32 book;\n        uint option;\n        uint payout;\n    }\n\n    struct book{\n        address bookie;\n        uint reductionRate;\n        uint[] optionsAmounts;\n        uint[] optionsDebt;\n        uint[] betTickets;\n        uint optionsCount;\n        uint totalBets;\n        bool complete;\n        uint winner;\n    }\n\n\n\n    mapping(uint => betTicket) public betTicketFromNFT;\n    mapping(bytes32 => book) public books;\n\n    event NewBet(uint, address, bytes32);\n    event NewBook(address, bytes32);\n    /// @dev constructor\n    constructor()ERC721(\"Betting Ticket\",\"BET\"){}\n\n    /**\n    * @dev function to place a bet. Anyone can call on any book as long as the option is included in the book\n    * @param _book is the book hash\n    * @param _option is the option to bet on\n     */\n    function placeBet(bytes32 _book, uint _option) external payable{\n        _issueBet(msg.sender, _book, _option, msg.value);\n    }\n\n    /**\n    * @dev function to collect on a won bet\n    * @param ticket is the NFT id to turn in for the winnings\n     */\n    function settleBet(uint ticket) external{\n        require(books[betTicketFromNFT[ticket].book].complete, \"Bet must be complete\");\n        require(books[betTicketFromNFT[ticket].book].winner == betTicketFromNFT[ticket].option, \"Must have bet on the winner\");\n        transferFrom(msg.sender, address(this), ticket);\n        _burn(ticket);\n        payable(msg.sender).transfer(betTicketFromNFT[ticket].payout);\n    }\n\n    /**\n    * @dev fundBet function for a bookie only to add some liquidity to a bet. People need money to win at the start\n    * @param _book the book hash to fund\n      */\n    function fundBet(bytes32 _book) external payable{\n        require(msg.sender == books[_book].bookie, \"Only the bookie can provide the books funding\");\n        uint sum = 0;\n        uint each = msg.value / books[_book].optionsCount;\n        require(each > 1, \"Must send enough wei to fund each option\");\n        for(uint i = 0; i < books[_book].optionsCount - 1; i++){\n            sum += each;\n            _issueBet(msg.sender, _book, i, each);\n        }\n        //For the last option send what's left of msg.value in case of rounding errors\n        _issueBet(msg.sender, _book, books[_book].optionsCount, msg.value - sum);\n    }\n\n    /**\n    * @dev getOdds somewhat confusingly actually returns the payout amount, not the odds\n    * @param _book is the book \n    * @param _option is the option index to bet on\n    * @param _amount is the amount to bet. Your odds depend on this\n    * @return payout if win\n     */\n    function getOdds(bytes32 _book, uint _option, uint _amount) public view returns(uint){\n        require(books[_book].optionsCount > _option, \"option must be within options in book\");\n        book storage b = books[_book];\n        if(b.totalBets == 0){\n            return _amount;\n        }\n        /*\n        Equation for the odds. looks like this:\n        P = oneHundred percent\n        R = reduction rate\n        t = total in book\n        A = amount being bet\n        a = total already bet on option\n\n        A(P - R) ((t + A) / (a + A))\n        _________________________\n                    P\n\n        */\n        return(\n            (\n                (_amount * (oneHundredPercent - b.reductionRate)) * \n                ((oneHundredPercent * (b.totalBets + _amount)) / oneHundredPercent * ((_amount + b.optionsAmounts[_option]))) / oneHundredPercent\n            ) / oneHundredPercent\n        );\n    }\n\n    /**\n    * @dev Function to call the winner of a bet. Only callable by bookie.\n    * @param _book to call\n    * @param _winner must be within options\n    */\n    function callBet(bytes32 _book, uint _winner)public{\n        require(_winner < books[_book].optionsCount, \"Winner must be within options\");\n        require(msg.sender == books[_book].bookie, \"Only the bookie can settle the bet\");\n        books[_book].winner = _winner;\n        books[_book].complete = true;\n        //Bookie fee is the totalBets - the bets to be paid for the winner\n        uint bookieFee = books[_book].totalBets - books[_book].optionsDebt[_winner] ;\n        payable(books[_book].bookie).transfer(bookieFee);\n    }\n\n    /**\n    * @dev _newBook creates a new book.....\n    * @param _bookie is the bookie who can fund and collect rees from reducing odds\n    * @param _numOptions is how many things you can bet on\n    * @param reductionRate is the rate by which books are reduced. A 2000 (20%) rate would turn 2/3 odds to 3/5 odds \n    * @return the book id\n    */\n    function _newBook(address _bookie, uint _numOptions, uint reductionRate) internal returns(bytes32){\n        require(reductionRate < oneHundredPercent, \"Reduction rate cannot be more than 100%\");\n        require(_numOptions > 1, \"Must have more than 1 option to bet on\");\n        uint[] memory a;\n        book memory b = book(_bookie, reductionRate, new uint[](_numOptions), new uint[](_numOptions), a, _numOptions, 0, false, 0);\n        bytes32 key = keccak256(abi.encodePacked(_bookie, reductionRate, _numOptions,msg.sender,block.timestamp));\n        require(books[key].bookie == address(0), \"book already exists at this key, you're likely trying to create multiple of the same books in one tx. Don't do this.\");\n        books[key] = b;\n        emit NewBook(_bookie, key);\n        return key;\n    }\n\n    /**\n    * @dev _issueBet is private helper function\n     */\n    function _issueBet(address _to, bytes32 _book, uint _option, uint _amount) private{\n            require(books[_book].optionsCount > _option, \"bet must be within options\");\n        _mint(_to, latestId);\n        uint odds = getOdds(_book,_option,_amount);\n        betTicketFromNFT[latestId] = betTicket(\n            _book,\n            _option,\n            odds\n        );\n        books[_book].betTickets.push(latestId);\n        books[_book].totalBets += _amount;\n        books[_book].optionsAmounts[_option] += _amount;\n        books[_book].optionsDebt[_option] += odds;\n        emit NewBet(latestId, _to, _book);\n        latestId++;\n\n    }\n\n}\n",
  "sourcePath": "/home/carsoncase/Documents/programming/blockchain/Seth/MugenBet/smartContracts/contracts/Betting.sol",
  "compiler": {
    "name": "solc",
    "version": "0.8.4+commit.c7e474f2.Emscripten.clang"
  },
  "schemaVersion": "3.4.1",
  "updatedAt": "2021-07-14T18:03:11.497Z",
  "devdoc": {
    "author": "Carson Case: carsonpcase@gmail.com",
    "kind": "dev",
    "methods": {
      "approve(address,uint256)": {
        "details": "See {IERC721-approve}."
      },
      "balanceOf(address)": {
        "details": "See {IERC721-balanceOf}."
      },
      "callBet(bytes32,uint256)": {
        "details": "Function to call the winner of a bet. Only callable by bookie.",
        "params": {
          "_book": "to call",
          "_winner": "must be within options"
        }
      },
      "constructor": {
        "details": "constructor"
      },
      "fundBet(bytes32)": {
        "details": "fundBet function for a bookie only to add some liquidity to a bet. People need money to win at the start",
        "params": {
          "_book": "the book hash to fund"
        }
      },
      "getApproved(uint256)": {
        "details": "See {IERC721-getApproved}."
      },
      "getOdds(bytes32,uint256,uint256)": {
        "details": "getOdds somewhat confusingly actually returns the payout amount, not the odds",
        "params": {
          "_amount": "is the amount to bet. Your odds depend on this",
          "_book": "is the book ",
          "_option": "is the option index to bet on"
        },
        "returns": {
          "_0": "payout if win"
        }
      },
      "isApprovedForAll(address,address)": {
        "details": "See {IERC721-isApprovedForAll}."
      },
      "name()": {
        "details": "See {IERC721Metadata-name}."
      },
      "ownerOf(uint256)": {
        "details": "See {IERC721-ownerOf}."
      },
      "placeBet(bytes32,uint256)": {
        "details": "function to place a bet. Anyone can call on any book as long as the option is included in the book",
        "params": {
          "_book": "is the book hash",
          "_option": "is the option to bet on"
        }
      },
      "safeTransferFrom(address,address,uint256)": {
        "details": "See {IERC721-safeTransferFrom}."
      },
      "safeTransferFrom(address,address,uint256,bytes)": {
        "details": "See {IERC721-safeTransferFrom}."
      },
      "setApprovalForAll(address,bool)": {
        "details": "See {IERC721-setApprovalForAll}."
      },
      "settleBet(uint256)": {
        "details": "function to collect on a won bet",
        "params": {
          "ticket": "is the NFT id to turn in for the winnings"
        }
      },
      "supportsInterface(bytes4)": {
        "details": "See {IERC165-supportsInterface}."
      },
      "symbol()": {
        "details": "See {IERC721Metadata-symbol}."
      },
      "tokenURI(uint256)": {
        "details": "See {IERC721Metadata-tokenURI}."
      },
      "transferFrom(address,address,uint256)": {
        "details": "See {IERC721-transferFrom}."
      }
    },
    "title": "Betting",
    "version": 1
  },
  "userdoc": {
    "kind": "user",
    "methods": {},
    "notice": "A contract for betting complete with a bookies reduction rate. The contract can issue \"books\" of bets which their bookies profit off of. And users can bet on. The ID of a book is emited as an event and a bet ticket is issued as an NFT with incremental interger IDs",
    "version": 1
  }
}