{
  "contractName": "MugenBet",
  "abi": [
    {
      "inputs": [
        {
          "internalType": "uint256",
          "name": "_r",
          "type": "uint256"
        }
      ],
      "stateMutability": "nonpayable",
      "type": "constructor"
    },
    {
      "anonymous": false,
      "inputs": [
        {
          "indexed": true,
          "internalType": "address",
          "name": "owner",
          "type": "address"
        },
        {
          "indexed": true,
          "internalType": "address",
          "name": "approved",
          "type": "address"
        },
        {
          "indexed": true,
          "internalType": "uint256",
          "name": "tokenId",
          "type": "uint256"
        }
      ],
      "name": "Approval",
      "type": "event"
    },
    {
      "anonymous": false,
      "inputs": [
        {
          "indexed": true,
          "internalType": "address",
          "name": "owner",
          "type": "address"
        },
        {
          "indexed": true,
          "internalType": "address",
          "name": "operator",
          "type": "address"
        },
        {
          "indexed": false,
          "internalType": "bool",
          "name": "approved",
          "type": "bool"
        }
      ],
      "name": "ApprovalForAll",
      "type": "event"
    },
    {
      "anonymous": false,
      "inputs": [
        {
          "indexed": false,
          "internalType": "uint256",
          "name": "",
          "type": "uint256"
        },
        {
          "indexed": false,
          "internalType": "address",
          "name": "",
          "type": "address"
        },
        {
          "indexed": false,
          "internalType": "bytes32",
          "name": "",
          "type": "bytes32"
        }
      ],
      "name": "NewBet",
      "type": "event"
    },
    {
      "anonymous": false,
      "inputs": [
        {
          "indexed": false,
          "internalType": "address",
          "name": "",
          "type": "address"
        },
        {
          "indexed": false,
          "internalType": "bytes32",
          "name": "",
          "type": "bytes32"
        }
      ],
      "name": "NewBook",
      "type": "event"
    },
    {
      "anonymous": false,
      "inputs": [
        {
          "indexed": true,
          "internalType": "address",
          "name": "previousOwner",
          "type": "address"
        },
        {
          "indexed": true,
          "internalType": "address",
          "name": "newOwner",
          "type": "address"
        }
      ],
      "name": "OwnershipTransferred",
      "type": "event"
    },
    {
      "anonymous": false,
      "inputs": [
        {
          "indexed": true,
          "internalType": "address",
          "name": "from",
          "type": "address"
        },
        {
          "indexed": true,
          "internalType": "address",
          "name": "to",
          "type": "address"
        },
        {
          "indexed": true,
          "internalType": "uint256",
          "name": "tokenId",
          "type": "uint256"
        }
      ],
      "name": "Transfer",
      "type": "event"
    },
    {
      "inputs": [
        {
          "internalType": "address",
          "name": "to",
          "type": "address"
        },
        {
          "internalType": "uint256",
          "name": "tokenId",
          "type": "uint256"
        }
      ],
      "name": "approve",
      "outputs": [],
      "stateMutability": "nonpayable",
      "type": "function"
    },
    {
      "inputs": [
        {
          "internalType": "address",
          "name": "owner",
          "type": "address"
        }
      ],
      "name": "balanceOf",
      "outputs": [
        {
          "internalType": "uint256",
          "name": "",
          "type": "uint256"
        }
      ],
      "stateMutability": "view",
      "type": "function",
      "constant": true
    },
    {
      "inputs": [
        {
          "internalType": "uint256",
          "name": "",
          "type": "uint256"
        }
      ],
      "name": "betTicketFromNFT",
      "outputs": [
        {
          "internalType": "bytes32",
          "name": "book",
          "type": "bytes32"
        },
        {
          "internalType": "uint256",
          "name": "option",
          "type": "uint256"
        },
        {
          "internalType": "uint256",
          "name": "payout",
          "type": "uint256"
        }
      ],
      "stateMutability": "view",
      "type": "function",
      "constant": true
    },
    {
      "inputs": [
        {
          "internalType": "bytes32",
          "name": "",
          "type": "bytes32"
        }
      ],
      "name": "books",
      "outputs": [
        {
          "internalType": "address",
          "name": "bookie",
          "type": "address"
        },
        {
          "internalType": "uint256",
          "name": "reductionRate",
          "type": "uint256"
        },
        {
          "internalType": "uint256",
          "name": "optionsCount",
          "type": "uint256"
        },
        {
          "internalType": "uint256",
          "name": "totalBets",
          "type": "uint256"
        },
        {
          "internalType": "bool",
          "name": "complete",
          "type": "bool"
        },
        {
          "internalType": "uint256",
          "name": "winner",
          "type": "uint256"
        }
      ],
      "stateMutability": "view",
      "type": "function",
      "constant": true
    },
    {
      "inputs": [
        {
          "internalType": "bytes32",
          "name": "_book",
          "type": "bytes32"
        },
        {
          "internalType": "uint256",
          "name": "_winner",
          "type": "uint256"
        }
      ],
      "name": "callBet",
      "outputs": [],
      "stateMutability": "nonpayable",
      "type": "function"
    },
    {
      "inputs": [
        {
          "internalType": "bytes32",
          "name": "_book",
          "type": "bytes32"
        }
      ],
      "name": "fundBet",
      "outputs": [],
      "stateMutability": "payable",
      "type": "function",
      "payable": true
    },
    {
      "inputs": [
        {
          "internalType": "uint256",
          "name": "tokenId",
          "type": "uint256"
        }
      ],
      "name": "getApproved",
      "outputs": [
        {
          "internalType": "address",
          "name": "",
          "type": "address"
        }
      ],
      "stateMutability": "view",
      "type": "function",
      "constant": true
    },
    {
      "inputs": [
        {
          "internalType": "bytes32",
          "name": "_book",
          "type": "bytes32"
        },
        {
          "internalType": "uint256",
          "name": "_option",
          "type": "uint256"
        },
        {
          "internalType": "uint256",
          "name": "_amount",
          "type": "uint256"
        }
      ],
      "name": "getOdds",
      "outputs": [
        {
          "internalType": "uint256",
          "name": "",
          "type": "uint256"
        }
      ],
      "stateMutability": "view",
      "type": "function",
      "constant": true
    },
    {
      "inputs": [
        {
          "internalType": "address",
          "name": "owner",
          "type": "address"
        },
        {
          "internalType": "address",
          "name": "operator",
          "type": "address"
        }
      ],
      "name": "isApprovedForAll",
      "outputs": [
        {
          "internalType": "bool",
          "name": "",
          "type": "bool"
        }
      ],
      "stateMutability": "view",
      "type": "function",
      "constant": true
    },
    {
      "inputs": [],
      "name": "name",
      "outputs": [
        {
          "internalType": "string",
          "name": "",
          "type": "string"
        }
      ],
      "stateMutability": "view",
      "type": "function",
      "constant": true
    },
    {
      "inputs": [],
      "name": "oneHundredPercent",
      "outputs": [
        {
          "internalType": "uint256",
          "name": "",
          "type": "uint256"
        }
      ],
      "stateMutability": "view",
      "type": "function",
      "constant": true
    },
    {
      "inputs": [],
      "name": "owner",
      "outputs": [
        {
          "internalType": "address",
          "name": "",
          "type": "address"
        }
      ],
      "stateMutability": "view",
      "type": "function",
      "constant": true
    },
    {
      "inputs": [
        {
          "internalType": "uint256",
          "name": "tokenId",
          "type": "uint256"
        }
      ],
      "name": "ownerOf",
      "outputs": [
        {
          "internalType": "address",
          "name": "",
          "type": "address"
        }
      ],
      "stateMutability": "view",
      "type": "function",
      "constant": true
    },
    {
      "inputs": [
        {
          "internalType": "bytes32",
          "name": "_book",
          "type": "bytes32"
        },
        {
          "internalType": "uint256",
          "name": "_option",
          "type": "uint256"
        }
      ],
      "name": "placeBet",
      "outputs": [],
      "stateMutability": "payable",
      "type": "function",
      "payable": true
    },
    {
      "inputs": [],
      "name": "renounceOwnership",
      "outputs": [],
      "stateMutability": "nonpayable",
      "type": "function"
    },
    {
      "inputs": [
        {
          "internalType": "address",
          "name": "from",
          "type": "address"
        },
        {
          "internalType": "address",
          "name": "to",
          "type": "address"
        },
        {
          "internalType": "uint256",
          "name": "tokenId",
          "type": "uint256"
        }
      ],
      "name": "safeTransferFrom",
      "outputs": [],
      "stateMutability": "nonpayable",
      "type": "function"
    },
    {
      "inputs": [
        {
          "internalType": "address",
          "name": "from",
          "type": "address"
        },
        {
          "internalType": "address",
          "name": "to",
          "type": "address"
        },
        {
          "internalType": "uint256",
          "name": "tokenId",
          "type": "uint256"
        },
        {
          "internalType": "bytes",
          "name": "_data",
          "type": "bytes"
        }
      ],
      "name": "safeTransferFrom",
      "outputs": [],
      "stateMutability": "nonpayable",
      "type": "function"
    },
    {
      "inputs": [
        {
          "internalType": "address",
          "name": "operator",
          "type": "address"
        },
        {
          "internalType": "bool",
          "name": "approved",
          "type": "bool"
        }
      ],
      "name": "setApprovalForAll",
      "outputs": [],
      "stateMutability": "nonpayable",
      "type": "function"
    },
    {
      "inputs": [
        {
          "internalType": "uint256",
          "name": "ticket",
          "type": "uint256"
        }
      ],
      "name": "settleBet",
      "outputs": [],
      "stateMutability": "nonpayable",
      "type": "function"
    },
    {
      "inputs": [
        {
          "internalType": "bytes4",
          "name": "interfaceId",
          "type": "bytes4"
        }
      ],
      "name": "supportsInterface",
      "outputs": [
        {
          "internalType": "bool",
          "name": "",
          "type": "bool"
        }
      ],
      "stateMutability": "view",
      "type": "function",
      "constant": true
    },
    {
      "inputs": [],
      "name": "symbol",
      "outputs": [
        {
          "internalType": "string",
          "name": "",
          "type": "string"
        }
      ],
      "stateMutability": "view",
      "type": "function",
      "constant": true
    },
    {
      "inputs": [
        {
          "internalType": "uint256",
          "name": "tokenId",
          "type": "uint256"
        }
      ],
      "name": "tokenURI",
      "outputs": [
        {
          "internalType": "string",
          "name": "",
          "type": "string"
        }
      ],
      "stateMutability": "view",
      "type": "function",
      "constant": true
    },
    {
      "inputs": [
        {
          "internalType": "address",
          "name": "from",
          "type": "address"
        },
        {
          "internalType": "address",
          "name": "to",
          "type": "address"
        },
        {
          "internalType": "uint256",
          "name": "tokenId",
          "type": "uint256"
        }
      ],
      "name": "transferFrom",
      "outputs": [],
      "stateMutability": "nonpayable",
      "type": "function"
    },
    {
      "inputs": [
        {
          "internalType": "address",
          "name": "newOwner",
          "type": "address"
        }
      ],
      "name": "transferOwnership",
      "outputs": [],
      "stateMutability": "nonpayable",
      "type": "function"
    },
    {
      "inputs": [],
      "name": "newGame",
      "outputs": [],
      "stateMutability": "nonpayable",
      "type": "function"
    },
    {
      "inputs": [
        {
          "internalType": "bytes32",
          "name": "_book",
          "type": "bytes32"
        },
        {
          "internalType": "uint256",
          "name": "_winner",
          "type": "uint256"
        }
      ],
      "name": "settleGame",
      "outputs": [],
      "stateMutability": "nonpayable",
      "type": "function"
    }
  ],
  "bytecode": "0x60a060405260006006553480156200001657600080fd5b5060405162004a3338038062004a3383398181016040528101906200003c91906200026b565b6040518060400160405280600e81526020017f42657474696e67205469636b65740000000000000000000000000000000000008152506040518060400160405280600381526020017f42455400000000000000000000000000000000000000000000000000000000008152508160009080519060200190620000c0929190620001a4565b508060019080519060200190620000d9929190620001a4565b5050506000620000ee6200019c60201b60201c565b905080600960006101000a81548173ffffffffffffffffffffffffffffffffffffffff021916908373ffffffffffffffffffffffffffffffffffffffff1602179055508073ffffffffffffffffffffffffffffffffffffffff16600073ffffffffffffffffffffffffffffffffffffffff167f8be0079c531659141344cd1fd0a4f28419497f9722a3daafe3b4186f6b6457e060405160405180910390a35080608081815250505062000320565b600033905090565b828054620001b290620002a1565b90600052602060002090601f016020900481019282620001d6576000855562000222565b82601f10620001f157805160ff191683800117855562000222565b8280016001018555821562000222579182015b828111156200022157825182559160200191906001019062000204565b5b50905062000231919062000235565b5090565b5b808211156200025057600081600090555060010162000236565b5090565b600081519050620002658162000306565b92915050565b6000602082840312156200027e57600080fd5b60006200028e8482850162000254565b91505092915050565b6000819050919050565b60006002820490506001821680620002ba57607f821691505b60208210811415620002d157620002d0620002d7565b5b50919050565b7f4e487b7100000000000000000000000000000000000000000000000000000000600052602260045260246000fd5b620003118162000297565b81146200031d57600080fd5b50565b6080516146f76200033c60003960006112de01526146f76000f3fe6080604052600436106101815760003560e01c8063726e0320116100d1578063a22cb4651161008a578063c87b56dd11610064578063c87b56dd14610576578063e985e9c5146105b3578063f2fde38b146105f0578063f3118d8e1461061957610181565b8063a22cb465146104fb578063b05f36d314610524578063b88d4fde1461054d57610181565b8063726e0320146103e95780637bab25d1146104125780637d03f5f31461045157806381007391146104685780638da5cb5b146104a557806395d89b41146104d057610181565b806316fd381a1161013e57806342842e0e1161011857806342842e0e1461032f5780636352211e1461035857806370a0823114610395578063715018a6146103d257610181565b806316fd381a146102b257806323b872dd146102db57806334913f281461030457610181565b806301ffc9a71461018657806306fdde03146101c3578063081812fc146101ee578063095ea7b31461022b5780630c0dee7014610254578063154048ab14610296575b600080fd5b34801561019257600080fd5b506101ad60048036038101906101a89190612fb7565b610635565b6040516101ba9190613664565b60405180910390f35b3480156101cf57600080fd5b506101d8610717565b6040516101e591906136b6565b60405180910390f35b3480156101fa57600080fd5b5061021560048036038101906102109190613009565b6107a9565b6040516102229190613573565b60405180910390f35b34801561023757600080fd5b50610252600480360381019061024d9190612ec7565b61082e565b005b34801561026057600080fd5b5061027b60048036038101906102769190612f03565b610946565b60405161028d96959493929190613603565b60405180910390f35b6102b060048036038101906102ab9190612f03565b6109af565b005b3480156102be57600080fd5b506102d960048036038101906102d49190613009565b610b4a565b005b3480156102e757600080fd5b5061030260048036038101906102fd9190612dc1565b610cbb565b005b34801561031057600080fd5b50610319610d1b565b6040516103269190613a38565b60405180910390f35b34801561033b57600080fd5b5061035660048036038101906103519190612dc1565b610d21565b005b34801561036457600080fd5b5061037f600480360381019061037a9190613009565b610d41565b60405161038c9190613573565b60405180910390f35b3480156103a157600080fd5b506103bc60048036038101906103b79190612d5c565b610df3565b6040516103c99190613a38565b60405180910390f35b3480156103de57600080fd5b506103e7610eab565b005b3480156103f557600080fd5b50610410600480360381019061040b9190612f2c565b610fe8565b005b34801561041e57600080fd5b5061043960048036038101906104349190613009565b61122e565b6040516104489392919061367f565b60405180910390f35b34801561045d57600080fd5b50610466611258565b005b34801561047457600080fd5b5061048f600480360381019061048a9190612f68565b611330565b60405161049c9190613a38565b60405180910390f35b3480156104b157600080fd5b506104ba611487565b6040516104c79190613573565b60405180910390f35b3480156104dc57600080fd5b506104e56114b1565b6040516104f291906136b6565b60405180910390f35b34801561050757600080fd5b50610522600480360381019061051d9190612e8b565b611543565b005b34801561053057600080fd5b5061054b60048036038101906105469190612f2c565b6116c4565b005b34801561055957600080fd5b50610574600480360381019061056f9190612e10565b61174e565b005b34801561058257600080fd5b5061059d60048036038101906105989190613009565b6117b0565b6040516105aa91906136b6565b60405180910390f35b3480156105bf57600080fd5b506105da60048036038101906105d59190612d85565b611857565b6040516105e79190613664565b60405180910390f35b3480156105fc57600080fd5b5061061760048036038101906106129190612d5c565b6118eb565b005b610633600480360381019061062e9190612f2c565b611a97565b005b60007f80ac58cd000000000000000000000000000000000000000000000000000000007bffffffffffffffffffffffffffffffffffffffffffffffffffffffff1916827bffffffffffffffffffffffffffffffffffffffffffffffffffffffff1916148061070057507f5b5e139f000000000000000000000000000000000000000000000000000000007bffffffffffffffffffffffffffffffffffffffffffffffffffffffff1916827bffffffffffffffffffffffffffffffffffffffffffffffffffffffff1916145b80610710575061070f82611aa7565b5b9050919050565b60606000805461072690613cf8565b80601f016020809104026020016040519081016040528092919081815260200182805461075290613cf8565b801561079f5780601f106107745761010080835404028352916020019161079f565b820191906000526020600020905b81548152906001019060200180831161078257829003601f168201915b5050505050905090565b60006107b482611b11565b6107f3576040517f08c379a00000000000000000000000000000000000000000000000000000000081526004016107ea906138d8565b60405180910390fd5b6004600083815260200190815260200160002060009054906101000a900473ffffffffffffffffffffffffffffffffffffffff169050919050565b600061083982610d41565b90508073ffffffffffffffffffffffffffffffffffffffff168373ffffffffffffffffffffffffffffffffffffffff1614156108aa576040517f08c379a00000000000000000000000000000000000000000000000000000000081526004016108a190613998565b60405180910390fd5b8073ffffffffffffffffffffffffffffffffffffffff166108c9611b7d565b73ffffffffffffffffffffffffffffffffffffffff1614806108f857506108f7816108f2611b7d565b611857565b5b610937576040517f08c379a000000000000000000000000000000000000000000000000000000000815260040161092e90613858565b60405180910390fd5b6109418383611b85565b505050565b60086020528060005260406000206000915090508060000160009054906101000a900473ffffffffffffffffffffffffffffffffffffffff16908060010154908060040154908060050154908060060160009054906101000a900460ff16908060070154905086565b6008600082815260200190815260200160002060000160009054906101000a900473ffffffffffffffffffffffffffffffffffffffff1673ffffffffffffffffffffffffffffffffffffffff163373ffffffffffffffffffffffffffffffffffffffff1614610a53576040517f08c379a0000000000000000000000000000000000000000000000000000000008152600401610a4a90613978565b60405180910390fd5b600080600860008481526020019081526020016000206004015434610a789190613b79565b905060018111610abd576040517f08c379a0000000000000000000000000000000000000000000000000000000008152600401610ab4906139f8565b60405180910390fd5b60005b60016008600086815260200190815260200160002060040154610ae39190613c04565b811015610b17578183610af69190613b23565b9250610b0433858385611c3e565b8080610b0f90613d5b565b915050610ac0565b50610b45338460086000878152602001908152602001600020600401548534610b409190613c04565b611c3e565b505050565b600860006007600084815260200190815260200160002060000154815260200190815260200160002060060160009054906101000a900460ff16610bc3576040517f08c379a0000000000000000000000000000000000000000000000000000000008152600401610bba906136d8565b60405180910390fd5b600760008281526020019081526020016000206001015460086000600760008581526020019081526020016000206000015481526020019081526020016000206007015414610c47576040517f08c379a0000000000000000000000000000000000000000000000000000000008152600401610c3e906137f8565b60405180910390fd5b610c52333083610cbb565b610c5b81611e69565b3373ffffffffffffffffffffffffffffffffffffffff166108fc60076000848152602001908152602001600020600201549081150290604051600060405180830381858888f19350505050158015610cb7573d6000803e3d6000fd5b5050565b610ccc610cc6611b7d565b82611f7a565b610d0b576040517f08c379a0000000000000000000000000000000000000000000000000000000008152600401610d02906139d8565b60405180910390fd5b610d16838383612058565b505050565b61271081565b610d3c8383836040518060200160405280600081525061174e565b505050565b6000806002600084815260200190815260200160002060009054906101000a900473ffffffffffffffffffffffffffffffffffffffff169050600073ffffffffffffffffffffffffffffffffffffffff168173ffffffffffffffffffffffffffffffffffffffff161415610dea576040517f08c379a0000000000000000000000000000000000000000000000000000000008152600401610de190613898565b60405180910390fd5b80915050919050565b60008073ffffffffffffffffffffffffffffffffffffffff168273ffffffffffffffffffffffffffffffffffffffff161415610e64576040517f08c379a0000000000000000000000000000000000000000000000000000000008152600401610e5b90613878565b60405180910390fd5b600360008373ffffffffffffffffffffffffffffffffffffffff1673ffffffffffffffffffffffffffffffffffffffff168152602001908152602001600020549050919050565b610eb3611b7d565b73ffffffffffffffffffffffffffffffffffffffff16610ed1611487565b73ffffffffffffffffffffffffffffffffffffffff1614610f27576040517f08c379a0000000000000000000000000000000000000000000000000000000008152600401610f1e906138f8565b60405180910390fd5b600073ffffffffffffffffffffffffffffffffffffffff16600960009054906101000a900473ffffffffffffffffffffffffffffffffffffffff1673ffffffffffffffffffffffffffffffffffffffff167f8be0079c531659141344cd1fd0a4f28419497f9722a3daafe3b4186f6b6457e060405160405180910390a36000600960006101000a81548173ffffffffffffffffffffffffffffffffffffffff021916908373ffffffffffffffffffffffffffffffffffffffff160217905550565b60086000838152602001908152602001600020600401548110611040576040517f08c379a000000000000000000000000000000000000000000000000000000000815260040161103790613738565b60405180910390fd5b6008600083815260200190815260200160002060000160009054906101000a900473ffffffffffffffffffffffffffffffffffffffff1673ffffffffffffffffffffffffffffffffffffffff163373ffffffffffffffffffffffffffffffffffffffff16146110e4576040517f08c379a00000000000000000000000000000000000000000000000000000000081526004016110db90613918565b60405180910390fd5b80600860008481526020019081526020016000206007018190555060016008600084815260200190815260200160002060060160006101000a81548160ff021916908315150217905550600060086000848152602001908152602001600020600301828154811061117e577f4e487b7100000000000000000000000000000000000000000000000000000000600052603260045260246000fd5b906000526020600020015460086000858152602001908152602001600020600501546111aa9190613c04565b90506008600084815260200190815260200160002060000160009054906101000a900473ffffffffffffffffffffffffffffffffffffffff1673ffffffffffffffffffffffffffffffffffffffff166108fc829081150290604051600060405180830381858888f19350505050158015611228573d6000803e3d6000fd5b50505050565b60076020528060005260406000206000915090508060000154908060010154908060020154905083565b611260611b7d565b73ffffffffffffffffffffffffffffffffffffffff1661127e611487565b73ffffffffffffffffffffffffffffffffffffffff16146112d4576040517f08c379a00000000000000000000000000000000000000000000000000000000081526004016112cb906138f8565b60405180910390fd5b60006113023060027f00000000000000000000000000000000000000000000000000000000000000006122b4565b9050600a81908060018154018082558091505060019003906000526020600020016000909190919091505550565b60008260086000868152602001908152602001600020600401541161138a576040517f08c379a0000000000000000000000000000000000000000000000000000000008152600401611381906137d8565b60405180910390fd5b60006008600086815260200190815260200160002090506000816005015414156113b75782915050611480565b612710808260020186815481106113f7577f4e487b7100000000000000000000000000000000000000000000000000000000600052603260045260246000fd5b90600052602060002001548561140d9190613b23565b6127108685600501546114209190613b23565b61271061142d9190613baa565b6114379190613b79565b6114419190613baa565b83600101546127106114539190613c04565b8661145e9190613baa565b6114689190613baa565b6114729190613b79565b61147c9190613b79565b9150505b9392505050565b6000600960009054906101000a900473ffffffffffffffffffffffffffffffffffffffff16905090565b6060600180546114c090613cf8565b80601f01602080910402602001604051908101604052809291908181526020018280546114ec90613cf8565b80156115395780601f1061150e57610100808354040283529160200191611539565b820191906000526020600020905b81548152906001019060200180831161151c57829003601f168201915b5050505050905090565b61154b611b7d565b73ffffffffffffffffffffffffffffffffffffffff168273ffffffffffffffffffffffffffffffffffffffff1614156115b9576040517f08c379a00000000000000000000000000000000000000000000000000000000081526004016115b0906137b8565b60405180910390fd5b80600560006115c6611b7d565b73ffffffffffffffffffffffffffffffffffffffff1673ffffffffffffffffffffffffffffffffffffffff16815260200190815260200160002060008473ffffffffffffffffffffffffffffffffffffffff1673ffffffffffffffffffffffffffffffffffffffff16815260200190815260200160002060006101000a81548160ff0219169083151502179055508173ffffffffffffffffffffffffffffffffffffffff16611673611b7d565b73ffffffffffffffffffffffffffffffffffffffff167f17307eab39ab6107e8899845ad3d59bd9653f200f220920489ca2b5937696c31836040516116b89190613664565b60405180910390a35050565b6116cc611b7d565b73ffffffffffffffffffffffffffffffffffffffff166116ea611487565b73ffffffffffffffffffffffffffffffffffffffff1614611740576040517f08c379a0000000000000000000000000000000000000000000000000000000008152600401611737906138f8565b60405180910390fd5b61174a8282610fe8565b5050565b61175f611759611b7d565b83611f7a565b61179e576040517f08c379a0000000000000000000000000000000000000000000000000000000008152600401611795906139d8565b60405180910390fd5b6117aa8484848461266f565b50505050565b60606117bb82611b11565b6117fa576040517f08c379a00000000000000000000000000000000000000000000000000000000081526004016117f190613958565b60405180910390fd5b60006118046126cb565b90506000815111611824576040518060200160405280600081525061184f565b8061182e846126e2565b60405160200161183f92919061354f565b6040516020818303038152906040525b915050919050565b6000600560008473ffffffffffffffffffffffffffffffffffffffff1673ffffffffffffffffffffffffffffffffffffffff16815260200190815260200160002060008373ffffffffffffffffffffffffffffffffffffffff1673ffffffffffffffffffffffffffffffffffffffff16815260200190815260200160002060009054906101000a900460ff16905092915050565b6118f3611b7d565b73ffffffffffffffffffffffffffffffffffffffff16611911611487565b73ffffffffffffffffffffffffffffffffffffffff1614611967576040517f08c379a000000000000000000000000000000000000000000000000000000000815260040161195e906138f8565b60405180910390fd5b600073ffffffffffffffffffffffffffffffffffffffff168173ffffffffffffffffffffffffffffffffffffffff1614156119d7576040517f08c379a00000000000000000000000000000000000000000000000000000000081526004016119ce90613718565b60405180910390fd5b8073ffffffffffffffffffffffffffffffffffffffff16600960009054906101000a900473ffffffffffffffffffffffffffffffffffffffff1673ffffffffffffffffffffffffffffffffffffffff167f8be0079c531659141344cd1fd0a4f28419497f9722a3daafe3b4186f6b6457e060405160405180910390a380600960006101000a81548173ffffffffffffffffffffffffffffffffffffffff021916908373ffffffffffffffffffffffffffffffffffffffff16021790555050565b611aa333838334611c3e565b5050565b60007f01ffc9a7000000000000000000000000000000000000000000000000000000007bffffffffffffffffffffffffffffffffffffffffffffffffffffffff1916827bffffffffffffffffffffffffffffffffffffffffffffffffffffffff1916149050919050565b60008073ffffffffffffffffffffffffffffffffffffffff166002600084815260200190815260200160002060009054906101000a900473ffffffffffffffffffffffffffffffffffffffff1673ffffffffffffffffffffffffffffffffffffffff1614159050919050565b600033905090565b816004600083815260200190815260200160002060006101000a81548173ffffffffffffffffffffffffffffffffffffffff021916908373ffffffffffffffffffffffffffffffffffffffff160217905550808273ffffffffffffffffffffffffffffffffffffffff16611bf883610d41565b73ffffffffffffffffffffffffffffffffffffffff167f8c5be1e5ebec7d5bd14f71427d1e84f3dd0314c0f7b2291e5b200ac8c7c3b92560405160405180910390a45050565b81600860008581526020019081526020016000206004015411611c96576040517f08c379a0000000000000000000000000000000000000000000000000000000008152600401611c8d90613a18565b60405180910390fd5b611ca28460065461288f565b6000611caf848484611330565b905060405180606001604052808581526020018481526020018281525060076000600654815260200190815260200160002060008201518160000155602082015181600101556040820151816002015590505081600860008681526020019081526020016000206005016000828254611d289190613b23565b9250508190555081600860008681526020019081526020016000206002018481548110611d7e577f4e487b7100000000000000000000000000000000000000000000000000000000600052603260045260246000fd5b906000526020600020016000828254611d979190613b23565b9250508190555080600860008681526020019081526020016000206003018481548110611ded577f4e487b7100000000000000000000000000000000000000000000000000000000600052603260045260246000fd5b906000526020600020016000828254611e069190613b23565b925050819055507f8fc9c4f9d6b36166b3dc0bcc4428f588ac64079e040b0623594709ccaceeac046006548686604051611e4293929190613a53565b60405180910390a160066000815480929190611e5d90613d5b565b91905055505050505050565b6000611e7482610d41565b9050611e8281600084612a5d565b611e8d600083611b85565b6001600360008373ffffffffffffffffffffffffffffffffffffffff1673ffffffffffffffffffffffffffffffffffffffff1681526020019081526020016000206000828254611edd9190613c04565b925050819055506002600083815260200190815260200160002060006101000a81549073ffffffffffffffffffffffffffffffffffffffff021916905581600073ffffffffffffffffffffffffffffffffffffffff168273ffffffffffffffffffffffffffffffffffffffff167fddf252ad1be2c89b69c2b068fc378daa952ba7f163c4a11628f55a4df523b3ef60405160405180910390a45050565b6000611f8582611b11565b611fc4576040517f08c379a0000000000000000000000000000000000000000000000000000000008152600401611fbb90613818565b60405180910390fd5b6000611fcf83610d41565b90508073ffffffffffffffffffffffffffffffffffffffff168473ffffffffffffffffffffffffffffffffffffffff16148061203e57508373ffffffffffffffffffffffffffffffffffffffff16612026846107a9565b73ffffffffffffffffffffffffffffffffffffffff16145b8061204f575061204e8185611857565b5b91505092915050565b8273ffffffffffffffffffffffffffffffffffffffff1661207882610d41565b73ffffffffffffffffffffffffffffffffffffffff16146120ce576040517f08c379a00000000000000000000000000000000000000000000000000000000081526004016120c590613938565b60405180910390fd5b600073ffffffffffffffffffffffffffffffffffffffff168273ffffffffffffffffffffffffffffffffffffffff16141561213e576040517f08c379a000000000000000000000000000000000000000000000000000000000815260040161213590613798565b60405180910390fd5b612149838383612a5d565b612154600082611b85565b6001600360008573ffffffffffffffffffffffffffffffffffffffff1673ffffffffffffffffffffffffffffffffffffffff16815260200190815260200160002060008282546121a49190613c04565b925050819055506001600360008473ffffffffffffffffffffffffffffffffffffffff1673ffffffffffffffffffffffffffffffffffffffff16815260200190815260200160002060008282546121fb9190613b23565b92505081905550816002600083815260200190815260200160002060006101000a81548173ffffffffffffffffffffffffffffffffffffffff021916908373ffffffffffffffffffffffffffffffffffffffff160217905550808273ffffffffffffffffffffffffffffffffffffffff168473ffffffffffffffffffffffffffffffffffffffff167fddf252ad1be2c89b69c2b068fc378daa952ba7f163c4a11628f55a4df523b3ef60405160405180910390a4505050565b600061271082106122fa576040517f08c379a00000000000000000000000000000000000000000000000000000000081526004016122f190613838565b60405180910390fd5b6001831161233d576040517f08c379a0000000000000000000000000000000000000000000000000000000008152600401612334906139b8565b60405180910390fd5b60006040518061010001604052808673ffffffffffffffffffffffffffffffffffffffff1681526020018481526020018567ffffffffffffffff8111156123ad577f4e487b7100000000000000000000000000000000000000000000000000000000600052604160045260246000fd5b6040519080825280602002602001820160405280156123db5781602001602082028036833780820191505090505b5081526020018567ffffffffffffffff811115612421577f4e487b7100000000000000000000000000000000000000000000000000000000600052604160045260246000fd5b60405190808252806020026020018201604052801561244f5781602001602082028036833780820191505090505b50815260200185815260200160008152602001600015158152602001600081525090506000858486334260405160200161248d9594939291906134f0565b604051602081830303815290604052805190602001209050600073ffffffffffffffffffffffffffffffffffffffff166008600083815260200190815260200160002060000160009054906101000a900473ffffffffffffffffffffffffffffffffffffffff1673ffffffffffffffffffffffffffffffffffffffff161461254a576040517f08c379a000000000000000000000000000000000000000000000000000000000815260040161254190613778565b60405180910390fd5b816008600083815260200190815260200160002060008201518160000160006101000a81548173ffffffffffffffffffffffffffffffffffffffff021916908373ffffffffffffffffffffffffffffffffffffffff1602179055506020820151816001015560408201518160020190805190602001906125cb929190612c0c565b5060608201518160030190805190602001906125e8929190612c0c565b506080820151816004015560a0820151816005015560c08201518160060160006101000a81548160ff02191690831515021790555060e082015181600701559050507fbc339e5933ac6a883787f7b4e2f57ebc7cdbbb4f6a23a30cd8c7b18c8acb593b868260405161265b9291906135da565b60405180910390a180925050509392505050565b61267a848484612058565b61268684848484612a62565b6126c5576040517f08c379a00000000000000000000000000000000000000000000000000000000081526004016126bc906136f8565b60405180910390fd5b50505050565b606060405180602001604052806000815250905090565b6060600082141561272a576040518060400160405280600181526020017f3000000000000000000000000000000000000000000000000000000000000000815250905061288a565b600082905060005b6000821461275c57808061274590613d5b565b915050600a826127559190613b79565b9150612732565b60008167ffffffffffffffff81111561279e577f4e487b7100000000000000000000000000000000000000000000000000000000600052604160045260246000fd5b6040519080825280601f01601f1916602001820160405280156127d05781602001600182028036833780820191505090505b5090505b60008514612883576001826127e99190613c04565b9150600a856127f89190613dd2565b60306128049190613b23565b60f81b818381518110612840577f4e487b7100000000000000000000000000000000000000000000000000000000600052603260045260246000fd5b60200101907effffffffffffffffffffffffffffffffffffffffffffffffffffffffffffff1916908160001a905350600a8561287c9190613b79565b94506127d4565b8093505050505b919050565b600073ffffffffffffffffffffffffffffffffffffffff168273ffffffffffffffffffffffffffffffffffffffff1614156128ff576040517f08c379a00000000000000000000000000000000000000000000000000000000081526004016128f6906138b8565b60405180910390fd5b61290881611b11565b15612948576040517f08c379a000000000000000000000000000000000000000000000000000000000815260040161293f90613758565b60405180910390fd5b61295460008383612a5d565b6001600360008473ffffffffffffffffffffffffffffffffffffffff1673ffffffffffffffffffffffffffffffffffffffff16815260200190815260200160002060008282546129a49190613b23565b92505081905550816002600083815260200190815260200160002060006101000a81548173ffffffffffffffffffffffffffffffffffffffff021916908373ffffffffffffffffffffffffffffffffffffffff160217905550808273ffffffffffffffffffffffffffffffffffffffff16600073ffffffffffffffffffffffffffffffffffffffff167fddf252ad1be2c89b69c2b068fc378daa952ba7f163c4a11628f55a4df523b3ef60405160405180910390a45050565b505050565b6000612a838473ffffffffffffffffffffffffffffffffffffffff16612bf9565b15612bec578373ffffffffffffffffffffffffffffffffffffffff1663150b7a02612aac611b7d565b8786866040518563ffffffff1660e01b8152600401612ace949392919061358e565b602060405180830381600087803b158015612ae857600080fd5b505af1925050508015612b1957506040513d601f19601f82011682018060405250810190612b169190612fe0565b60015b612b9c573d8060008114612b49576040519150601f19603f3d011682016040523d82523d6000602084013e612b4e565b606091505b50600081511415612b94576040517f08c379a0000000000000000000000000000000000000000000000000000000008152600401612b8b906136f8565b60405180910390fd5b805181602001fd5b63150b7a0260e01b7bffffffffffffffffffffffffffffffffffffffffffffffffffffffff1916817bffffffffffffffffffffffffffffffffffffffffffffffffffffffff191614915050612bf1565b600190505b949350505050565b600080823b905060008111915050919050565b828054828255906000526020600020908101928215612c48579160200282015b82811115612c47578251825591602001919060010190612c2c565b5b509050612c559190612c59565b5090565b5b80821115612c72576000816000905550600101612c5a565b5090565b6000612c89612c8484613aaf565b613a8a565b905082815260208101848484011115612ca157600080fd5b612cac848285613cb6565b509392505050565b600081359050612cc38161464e565b92915050565b600081359050612cd881614665565b92915050565b600081359050612ced8161467c565b92915050565b600081359050612d0281614693565b92915050565b600081519050612d1781614693565b92915050565b600082601f830112612d2e57600080fd5b8135612d3e848260208601612c76565b91505092915050565b600081359050612d56816146aa565b92915050565b600060208284031215612d6e57600080fd5b6000612d7c84828501612cb4565b91505092915050565b60008060408385031215612d9857600080fd5b6000612da685828601612cb4565b9250506020612db785828601612cb4565b9150509250929050565b600080600060608486031215612dd657600080fd5b6000612de486828701612cb4565b9350506020612df586828701612cb4565b9250506040612e0686828701612d47565b9150509250925092565b60008060008060808587031215612e2657600080fd5b6000612e3487828801612cb4565b9450506020612e4587828801612cb4565b9350506040612e5687828801612d47565b925050606085013567ffffffffffffffff811115612e7357600080fd5b612e7f87828801612d1d565b91505092959194509250565b60008060408385031215612e9e57600080fd5b6000612eac85828601612cb4565b9250506020612ebd85828601612cc9565b9150509250929050565b60008060408385031215612eda57600080fd5b6000612ee885828601612cb4565b9250506020612ef985828601612d47565b9150509250929050565b600060208284031215612f1557600080fd5b6000612f2384828501612cde565b91505092915050565b60008060408385031215612f3f57600080fd5b6000612f4d85828601612cde565b9250506020612f5e85828601612d47565b9150509250929050565b600080600060608486031215612f7d57600080fd5b6000612f8b86828701612cde565b9350506020612f9c86828701612d47565b9250506040612fad86828701612d47565b9150509250925092565b600060208284031215612fc957600080fd5b6000612fd784828501612cf3565b91505092915050565b600060208284031215612ff257600080fd5b600061300084828501612d08565b91505092915050565b60006020828403121561301b57600080fd5b600061302984828501612d47565b91505092915050565b61303b81613c38565b82525050565b61305261304d82613c38565b613da4565b82525050565b61306181613c4a565b82525050565b61307081613c56565b82525050565b600061308182613ae0565b61308b8185613af6565b935061309b818560208601613cc5565b6130a481613ebf565b840191505092915050565b60006130ba82613aeb565b6130c48185613b07565b93506130d4818560208601613cc5565b6130dd81613ebf565b840191505092915050565b60006130f382613aeb565b6130fd8185613b18565b935061310d818560208601613cc5565b80840191505092915050565b6000613126601483613b07565b915061313182613edd565b602082019050919050565b6000613149603283613b07565b915061315482613f06565b604082019050919050565b600061316c602683613b07565b915061317782613f55565b604082019050919050565b600061318f601d83613b07565b915061319a82613fa4565b602082019050919050565b60006131b2601c83613b07565b91506131bd82613fcd565b602082019050919050565b60006131d5607483613b07565b91506131e082613ff6565b608082019050919050565b60006131f8602483613b07565b915061320382614091565b604082019050919050565b600061321b601983613b07565b9150613226826140e0565b602082019050919050565b600061323e602583613b07565b915061324982614109565b604082019050919050565b6000613261601b83613b07565b915061326c82614158565b602082019050919050565b6000613284602c83613b07565b915061328f82614181565b604082019050919050565b60006132a7602783613b07565b91506132b2826141d0565b604082019050919050565b60006132ca603883613b07565b91506132d58261421f565b604082019050919050565b60006132ed602a83613b07565b91506132f88261426e565b604082019050919050565b6000613310602983613b07565b915061331b826142bd565b604082019050919050565b6000613333602083613b07565b915061333e8261430c565b602082019050919050565b6000613356602c83613b07565b915061336182614335565b604082019050919050565b6000613379602083613b07565b915061338482614384565b602082019050919050565b600061339c602283613b07565b91506133a7826143ad565b604082019050919050565b60006133bf602983613b07565b91506133ca826143fc565b604082019050919050565b60006133e2602f83613b07565b91506133ed8261444b565b604082019050919050565b6000613405602d83613b07565b91506134108261449a565b604082019050919050565b6000613428602183613b07565b9150613433826144e9565b604082019050919050565b600061344b602683613b07565b915061345682614538565b604082019050919050565b600061346e603183613b07565b915061347982614587565b604082019050919050565b6000613491602883613b07565b915061349c826145d6565b604082019050919050565b60006134b4601a83613b07565b91506134bf82614625565b602082019050919050565b6134d381613cac565b82525050565b6134ea6134e582613cac565b613dc8565b82525050565b60006134fc8288613041565b60148201915061350c82876134d9565b60208201915061351c82866134d9565b60208201915061352c8285613041565b60148201915061353c82846134d9565b6020820191508190509695505050505050565b600061355b82856130e8565b915061356782846130e8565b91508190509392505050565b60006020820190506135886000830184613032565b92915050565b60006080820190506135a36000830187613032565b6135b06020830186613032565b6135bd60408301856134ca565b81810360608301526135cf8184613076565b905095945050505050565b60006040820190506135ef6000830185613032565b6135fc6020830184613067565b9392505050565b600060c0820190506136186000830189613032565b61362560208301886134ca565b61363260408301876134ca565b61363f60608301866134ca565b61364c6080830185613058565b61365960a08301846134ca565b979650505050505050565b60006020820190506136796000830184613058565b92915050565b60006060820190506136946000830186613067565b6136a160208301856134ca565b6136ae60408301846134ca565b949350505050565b600060208201905081810360008301526136d081846130af565b905092915050565b600060208201905081810360008301526136f181613119565b9050919050565b600060208201905081810360008301526137118161313c565b9050919050565b600060208201905081810360008301526137318161315f565b9050919050565b6000602082019050818103600083015261375181613182565b9050919050565b60006020820190508181036000830152613771816131a5565b9050919050565b60006020820190508181036000830152613791816131c8565b9050919050565b600060208201905081810360008301526137b1816131eb565b9050919050565b600060208201905081810360008301526137d18161320e565b9050919050565b600060208201905081810360008301526137f181613231565b9050919050565b6000602082019050818103600083015261381181613254565b9050919050565b6000602082019050818103600083015261383181613277565b9050919050565b600060208201905081810360008301526138518161329a565b9050919050565b60006020820190508181036000830152613871816132bd565b9050919050565b60006020820190508181036000830152613891816132e0565b9050919050565b600060208201905081810360008301526138b181613303565b9050919050565b600060208201905081810360008301526138d181613326565b9050919050565b600060208201905081810360008301526138f181613349565b9050919050565b600060208201905081810360008301526139118161336c565b9050919050565b600060208201905081810360008301526139318161338f565b9050919050565b60006020820190508181036000830152613951816133b2565b9050919050565b60006020820190508181036000830152613971816133d5565b9050919050565b60006020820190508181036000830152613991816133f8565b9050919050565b600060208201905081810360008301526139b18161341b565b9050919050565b600060208201905081810360008301526139d18161343e565b9050919050565b600060208201905081810360008301526139f181613461565b9050919050565b60006020820190508181036000830152613a1181613484565b9050919050565b60006020820190508181036000830152613a31816134a7565b9050919050565b6000602082019050613a4d60008301846134ca565b92915050565b6000606082019050613a6860008301866134ca565b613a756020830185613032565b613a826040830184613067565b949350505050565b6000613a94613aa5565b9050613aa08282613d2a565b919050565b6000604051905090565b600067ffffffffffffffff821115613aca57613ac9613e90565b5b613ad382613ebf565b9050602081019050919050565b600081519050919050565b600081519050919050565b600082825260208201905092915050565b600082825260208201905092915050565b600081905092915050565b6000613b2e82613cac565b9150613b3983613cac565b9250827fffffffffffffffffffffffffffffffffffffffffffffffffffffffffffffffff03821115613b6e57613b6d613e03565b5b828201905092915050565b6000613b8482613cac565b9150613b8f83613cac565b925082613b9f57613b9e613e32565b5b828204905092915050565b6000613bb582613cac565b9150613bc083613cac565b9250817fffffffffffffffffffffffffffffffffffffffffffffffffffffffffffffffff0483118215151615613bf957613bf8613e03565b5b828202905092915050565b6000613c0f82613cac565b9150613c1a83613cac565b925082821015613c2d57613c2c613e03565b5b828203905092915050565b6000613c4382613c8c565b9050919050565b60008115159050919050565b6000819050919050565b60007fffffffff0000000000000000000000000000000000000000000000000000000082169050919050565b600073ffffffffffffffffffffffffffffffffffffffff82169050919050565b6000819050919050565b82818337600083830152505050565b60005b83811015613ce3578082015181840152602081019050613cc8565b83811115613cf2576000848401525b50505050565b60006002820490506001821680613d1057607f821691505b60208210811415613d2457613d23613e61565b5b50919050565b613d3382613ebf565b810181811067ffffffffffffffff82111715613d5257613d51613e90565b5b80604052505050565b6000613d6682613cac565b91507fffffffffffffffffffffffffffffffffffffffffffffffffffffffffffffffff821415613d9957613d98613e03565b5b600182019050919050565b6000613daf82613db6565b9050919050565b6000613dc182613ed0565b9050919050565b6000819050919050565b6000613ddd82613cac565b9150613de883613cac565b925082613df857613df7613e32565b5b828206905092915050565b7f4e487b7100000000000000000000000000000000000000000000000000000000600052601160045260246000fd5b7f4e487b7100000000000000000000000000000000000000000000000000000000600052601260045260246000fd5b7f4e487b7100000000000000000000000000000000000000000000000000000000600052602260045260246000fd5b7f4e487b7100000000000000000000000000000000000000000000000000000000600052604160045260246000fd5b6000601f19601f8301169050919050565b60008160601b9050919050565b7f426574206d75737420626520636f6d706c657465000000000000000000000000600082015250565b7f4552433732313a207472616e7366657220746f206e6f6e20455243373231526560008201527f63656976657220696d706c656d656e7465720000000000000000000000000000602082015250565b7f4f776e61626c653a206e6577206f776e657220697320746865207a65726f206160008201527f6464726573730000000000000000000000000000000000000000000000000000602082015250565b7f57696e6e6572206d7573742062652077697468696e206f7074696f6e73000000600082015250565b7f4552433732313a20746f6b656e20616c7265616479206d696e74656400000000600082015250565b7f626f6f6b20616c7265616479206578697374732061742074686973206b65792c60008201527f20796f75277265206c696b656c7920747279696e6720746f206372656174652060208201527f6d756c7469706c65206f66207468652073616d6520626f6f6b7320696e206f6e60408201527f652074782e20446f6e277420646f20746869732e000000000000000000000000606082015250565b7f4552433732313a207472616e7366657220746f20746865207a65726f2061646460008201527f7265737300000000000000000000000000000000000000000000000000000000602082015250565b7f4552433732313a20617070726f766520746f2063616c6c657200000000000000600082015250565b7f6f7074696f6e206d7573742062652077697468696e206f7074696f6e7320696e60008201527f20626f6f6b000000000000000000000000000000000000000000000000000000602082015250565b7f4d757374206861766520626574206f6e207468652077696e6e65720000000000600082015250565b7f4552433732313a206f70657261746f7220717565727920666f72206e6f6e657860008201527f697374656e7420746f6b656e0000000000000000000000000000000000000000602082015250565b7f526564756374696f6e20726174652063616e6e6f74206265206d6f726520746860008201527f616e203130302500000000000000000000000000000000000000000000000000602082015250565b7f4552433732313a20617070726f76652063616c6c6572206973206e6f74206f7760008201527f6e6572206e6f7220617070726f76656420666f7220616c6c0000000000000000602082015250565b7f4552433732313a2062616c616e636520717565727920666f7220746865207a6560008201527f726f206164647265737300000000000000000000000000000000000000000000602082015250565b7f4552433732313a206f776e657220717565727920666f72206e6f6e657869737460008201527f656e7420746f6b656e0000000000000000000000000000000000000000000000602082015250565b7f4552433732313a206d696e7420746f20746865207a65726f2061646472657373600082015250565b7f4552433732313a20617070726f76656420717565727920666f72206e6f6e657860008201527f697374656e7420746f6b656e0000000000000000000000000000000000000000602082015250565b7f4f776e61626c653a2063616c6c6572206973206e6f7420746865206f776e6572600082015250565b7f4f6e6c792074686520626f6f6b69652063616e20736574746c6520746865206260008201527f6574000000000000000000000000000000000000000000000000000000000000602082015250565b7f4552433732313a207472616e73666572206f6620746f6b656e2074686174206960008201527f73206e6f74206f776e0000000000000000000000000000000000000000000000602082015250565b7f4552433732314d657461646174613a2055524920717565727920666f72206e6f60008201527f6e6578697374656e7420746f6b656e0000000000000000000000000000000000602082015250565b7f4f6e6c792074686520626f6f6b69652063616e2070726f76696465207468652060008201527f626f6f6b732066756e64696e6700000000000000000000000000000000000000602082015250565b7f4552433732313a20617070726f76616c20746f2063757272656e74206f776e6560008201527f7200000000000000000000000000000000000000000000000000000000000000602082015250565b7f4d7573742068617665206d6f7265207468616e2031206f7074696f6e20746f2060008201527f626574206f6e0000000000000000000000000000000000000000000000000000602082015250565b7f4552433732313a207472616e736665722063616c6c6572206973206e6f74206f60008201527f776e6572206e6f7220617070726f766564000000000000000000000000000000602082015250565b7f4d7573742073656e6420656e6f7567682077656920746f2066756e642065616360008201527f68206f7074696f6e000000000000000000000000000000000000000000000000602082015250565b7f626574206d7573742062652077697468696e206f7074696f6e73000000000000600082015250565b61465781613c38565b811461466257600080fd5b50565b61466e81613c4a565b811461467957600080fd5b50565b61468581613c56565b811461469057600080fd5b50565b61469c81613c60565b81146146a757600080fd5b50565b6146b381613cac565b81146146be57600080fd5b5056fea2646970667358221220f0dd9ff201cc9a6fd4d77d6f8b07478fe44700723fddd85b47b42eee93c63d0a64736f6c63430008040033",
  "immutableReferences": {
    "557": [
      {
        "length": 32,
        "start": 4830
      }
    ]
  },
  "source": "//SPDX-License-Identifier: None\npragma solidity ^0.8.0;\n\nimport \"./Betting.sol\";\nimport \"@openzeppelin/contracts/access/Ownable.sol\";\n\ncontract MugenBet is Betting, Ownable{\n    uint constant private OPTIONS = 2;\n    uint immutable private reductionRate;\n    bytes32[] games;\n\n    constructor(uint _r) Ownable(){\n        reductionRate = _r;\n    }\n\n    /**\n    * @dev newGame function called by owner to create a game, and push it to array\n     */\n    function newGame()external onlyOwner{\n        bytes32 key = _newBook(address(this), OPTIONS, reductionRate);\n        games.push(key);\n    }\n\n    /**\n    * @dev settleGame called with a game's results\n    * @param _winner is the index of the winner of the game\n     */\n    function settleGame(bytes32 _book, uint _winner)external onlyOwner{\n        callBet(_book, _winner);\n    }\n}",
  "sourcePath": "/home/carsoncase/Documents/programming/blockchain/Seth/MugenBet/smartContracts/contracts/MugenBet.sol",
  "compiler": {
    "name": "solc",
    "version": "0.8.4+commit.c7e474f2.Emscripten.clang"
  },
  "schemaVersion": "3.4.1",
  "updatedAt": "2021-07-03T20:37:41.849Z",
  "networkType": "ethereum",
  "devdoc": {
    "kind": "dev",
    "methods": {
      "approve(address,uint256)": {
        "details": "See {IERC721-approve}."
      },
      "balanceOf(address)": {
        "details": "See {IERC721-balanceOf}."
      },
      "callBet(bytes32,uint256)": {
        "details": "Function to call the winner of a bet. Only callable by bookie.",
        "params": {
          "_book": "to call",
          "_winner": "must be within options"
        }
      },
      "fundBet(bytes32)": {
        "details": "fundBet function for a bookie only to add some liquidity to a bet. People need money to win at the start",
        "params": {
          "_book": "the book hash to fund"
        }
      },
      "getApproved(uint256)": {
        "details": "See {IERC721-getApproved}."
      },
      "getOdds(bytes32,uint256,uint256)": {
        "details": "getOdds somewhat confusingly actually returns the payout amount, not the odds",
        "params": {
          "_amount": "is the amount to bet. Your odds depend on this",
          "_book": "is the book ",
          "_option": "is the option index to bet on"
        },
        "returns": {
          "_0": "payout if win"
        }
      },
      "isApprovedForAll(address,address)": {
        "details": "See {IERC721-isApprovedForAll}."
      },
      "name()": {
        "details": "See {IERC721Metadata-name}."
      },
      "newGame()": {
        "details": "newGame function called by owner to create a game, and push it to array"
      },
      "owner()": {
        "details": "Returns the address of the current owner."
      },
      "ownerOf(uint256)": {
        "details": "See {IERC721-ownerOf}."
      },
      "placeBet(bytes32,uint256)": {
        "details": "function to place a bet. Anyone can call on any book as long as the option is included in the book",
        "params": {
          "_book": "is the book hash",
          "_option": "is the option to bet on"
        }
      },
      "renounceOwnership()": {
        "details": "Leaves the contract without owner. It will not be possible to call `onlyOwner` functions anymore. Can only be called by the current owner. NOTE: Renouncing ownership will leave the contract without an owner, thereby removing any functionality that is only available to the owner."
      },
      "safeTransferFrom(address,address,uint256)": {
        "details": "See {IERC721-safeTransferFrom}."
      },
      "safeTransferFrom(address,address,uint256,bytes)": {
        "details": "See {IERC721-safeTransferFrom}."
      },
      "setApprovalForAll(address,bool)": {
        "details": "See {IERC721-setApprovalForAll}."
      },
      "settleBet(uint256)": {
        "details": "function to collect on a won bet",
        "params": {
          "ticket": "is the NFT id to turn in for the winnings"
        }
      },
      "settleGame(bytes32,uint256)": {
        "details": "settleGame called with a game's results",
        "params": {
          "_winner": "is the index of the winner of the game"
        }
      },
      "supportsInterface(bytes4)": {
        "details": "See {IERC165-supportsInterface}."
      },
      "symbol()": {
        "details": "See {IERC721Metadata-symbol}."
      },
      "tokenURI(uint256)": {
        "details": "See {IERC721Metadata-tokenURI}."
      },
      "transferFrom(address,address,uint256)": {
        "details": "See {IERC721-transferFrom}."
      },
      "transferOwnership(address)": {
        "details": "Transfers ownership of the contract to a new account (`newOwner`). Can only be called by the current owner."
      }
    },
    "version": 1
  },
  "userdoc": {
    "kind": "user",
    "methods": {},
    "version": 1
  }
}